:020000040800F2
:1000000000000120151C0008C1020008C3020008FE
:10001000C5020008C7020008C9020008000000006D
:10002000000000000000000000000000CB020008FB
:10003000CD02000800000000CF020008D102000835
:100040005D1C00085D1C00085D1C00085D1C0008AC
:100050005D1C00085D1C00085D1C00085D1C00089C
:100060005D1C00085D1C00085D1C00085D1C00088C
:100070005D1C00085D1C00085D1C00085D1C00087C
:100080005D1C00085D1C00085D1C00085D1C00086C
:100090005D1C00085D1C00085D1C00085D1C00085C
:1000A0005D1C00085D1C00085D1C00085D1C00084C
:1000B000D90200085D1C00085D1C00085D1C0008DA
:1000C0005D1C00085D1C00085D1C00085D1C00082C
:1000D0005D1C0008E90200085D1C00085D1C0008AA
:1000E0005D1C00085D1C00085D1C00085D1C00080C
:1000F0005D1C00085D1C00085D1C00085D1C0008FC
:100100005D1C00085D1C00085D1C00085D1C0008EB
:100110005D1C00085D1C00085D1C00085D1C0008DB
:100120005D1C00085D1C00085D1C00085D1C0008CB
:1001300000000000000000000000000000000000BF
:1001400000000000000000000000000000000000AF
:10015000000000000000000000000000000000009F
:10016000000000000000000000000000000000008F
:10017000000000000000000000000000000000007F
:10018000000000000000000000000000000000006F
:10019000000000000000000000000000000000005F
:1001A000000000000000000000000000000000004F
:1001B000000000000000000000000000000000003F
:1001C000000000000000000000000000000000002F
:1001D000000000000000000000000000000000001F
:0401E0005FF8E0F1F3
:1001E40010B5054C237833B9044B13B10448AFF36D
:1001F40000800123237010BD700000200000000067
:100204001027000808B5034B1BB103490348AFF39B
:10021400008008BD000000007400002010270008C2
:1002240072B6FEE700B591B02822002106A801F0BD
:1002340039FD002301930293039304930593012250
:1002440006924FF4803307930A9202220D920E9382
:100254004FF4E0130F9306A800F036FB80B90F2388
:10026400019302210291002303934FF480620492CC
:10027400059301A800F068FD20B911B05DF804FBF6
:10028400FFF7CEFFFFF7CCFF08B500F0CFFAFFF77A
:10029400C9FF01F0A9F801F01FF901F089F9054837
:1002A40000F06EF84FF47A7000F0E4FA024801F0BE
:1002B4006FFDF7E79400002028270008FEE7FEE71B
:1002C400FEE7FEE7FEE770477047704708B500F0A9
:1002D400BFFA08BD08B5024800F092F808BD00BF97
:1002E4009400002008B5024801F052FB08BD00BF8D
:1002F400DC00002082B00A4B9A6942F001029A6144
:100304009A6902F001020092009ADA6942F080527E
:10031400DA61DB6903F080530193019B02B07047FB
:100324000010024010B4036A046A24F00104046259
:10033400846924F0F00C4CEA021223F00A030B4304
:100344008261036210BC704710B4046A24F0100484
:1003540004628469036A24F4704C4CEA023223F088
:10036400A00343EA01138261036210BC70478368EF
:1003740023F070030B4343F00703836070470000CE
:1003840090F83D30DBB2012B2FD1022380F83D30B1
:100394000268D36843F00103D3600368154A9342AB
:1003A40018D002F50062934214D0B3F1804F11D0FB
:1003B400A2F5983293420DD002F58062934209D09F
:1003C40002F58062934205D01A6842F001021A6075
:1003D400002070479A6802F00702062A07D01A68BC
:1003E40042F001021A60002070470120704700208B
:1003F400704700BF002C014070477047704770473A
:1004040010B5044603681A6912F0020F11D0DA68B5
:1004140012F0020F0DD06FF002021A61012303776C
:1004240003689B6913F0030F70D0FFF7E6FF002306
:10043400237723681A6912F0040F12D0DA6812F0D5
:10044400040F0ED06FF004021A610223237723688D
:100454009B6913F4407F5FD02046FFF7CEFF002353
:10046400237723681A6912F0080F12D0DA6812F0A1
:10047400080F0ED06FF008021A6104232377236853
:10048400DB6913F0030F4ED02046FFF7B6FF0023BD
:10049400237723681A6912F0100F12D0DA6812F069
:1004A400100F0ED06FF010021A610823237723680F
:1004B400DB6913F4407F3DD02046FFF79EFF002305
:1004C400237723681A6912F0010F03D0DA6812F057
:1004D400010F36D123681A6912F0800F03D0DA684D
:1004E40012F0800F34D123681A6912F0400F03D040
:1004F400DA6812F0400F32D123681A6912F0200F23
:1005040003D0DA6812F0200F30D110BDFFF774FF6A
:100514002046FFF773FF8AE72046FFF76DFF20466A
:10052400FFF76CFF9BE72046FFF766FF2046FFF7C7
:1005340065FFACE72046FFF75FFF2046FFF75EFF4D
:10054400BDE76FF001021A61204601F019F8C1E716
:100554006FF080021A61204600F041F9C3E76FF0A2
:1005640040021A612046FFF74AFFC5E76FF02002F8
:100574001A61204600F032F9C7E700000368244AF4
:10058400904212D002F5006290420ED0B0F1804F3A
:100594000BD0A2F59832904207D002F580629042C7
:1005A40003D002F58062904203D123F070034A68BD
:1005B4001343174A904212D002F5006290420ED0C3
:1005C400B0F1804F0BD0A2F59832904207D002F5DB
:1005D4008062904203D002F58062904203D123F4FA
:1005E4004073CA68134323F080034A6913430360CA
:1005F4008B68C3620B688362054B984203D003F592
:100604000063984201D10B6903630123436170477E
:10061400002C014040B310B5044690F83D30F3B1CE
:10062400022384F83D30214651F8040BFFF7A6FF5E
:10063400012384F8463084F83E3084F83F3084F84F
:10064400403084F8413084F8423084F8433084F8F0
:10065400443084F8453084F83D30002010BD80F8E3
:100664003C3000F06FFFDBE70120704710B4846872
:1006740024F47F4C42EA03220A4342EA0C028260D9
:1006840010BC704790F83C30012B66D010B504467E
:10069400012380F83C30022380F83D3002689368DF
:1006A40023F47F4323F0770393600B68602B40D0DF
:1006B40022D8402B47D00BD9502B0ED1CA68496899
:1006C4000068FFF72FFE50212068FFF750FE04E07A
:1006D400202B0CD008D9302B09D0012384F83D30CD
:1006E400002084F83C0010BD0BB1102BF5D1194645
:1006F4002068FFF73CFEF0E7702B0ED0B3F5005FE7
:10070400EBD1CB684A6889680068FFF7AFFF2268BD
:10071400936843F480439360DFE7CB684A68896851
:100724000068FFF7A3FF2268936843F077039360A0
:10073400D3E7CA6849680068FFF706FE60212068AD
:10074400FFF715FEC9E7CA6849680068FFF7EAFDC4
:1007540040212068FFF70BFEBFE70220704700002E
:1007640090F83C30012B34D010B4012380F83C3095
:10077400022380F83D3003685A689C6822F0700CAC
:100784000A6842EA0C025A600368134A934212D080
:1007940002F5006293420ED0B3F1804F0BD0A2F564
:1007A4009832934207D002F58062934203D002F557
:1007B4008062934204D124F080044A6814439C600C
:1007C400012380F83D30002380F83C30184610BCEB
:1007D40070470220704700BF002C014070477047EB
:1007E40010B504460E4B18784FF47A73B3FBF0F34C
:1007F4000C4A1068B0FBF3F000F0E0FD68B90F2C70
:1008040001D901200AE0002221464FF0FF3000F018
:100814008FFD054B1C60002000E0012010BD00BFCF
:1008240000000020080000200400002008B5074A4A
:10083400136843F010031360032000F067FD0F20DA
:10084400FFF7CEFFFFF756FD002008BD0020024051
:10085400034A1168034B1B780B441360704700BFB5
:100864008C00002000000020014B1868704700BF76
:100874008C00002038B50446FFF7F6FF0546B4F1B6
:10088400FF3F02D0044B1B781C44FFF7EDFF401BD5
:10089400A042FAD338BD00BF0000002082B0084B4C
:1008A4001B68084AA2FB03235B0A00FB03F30193C2
:1008B40000BF019B5A1E0192002BF9D102B0704770
:1008C40008000020D34D6210002800F0F18170B5BB
:1008D40082B00446036813F0010F2CD0994B5B6877
:1008E40003F00C03042B1DD0964B5B6803F00C0340
:1008F400082B12D06368B3F5803F41D0002B55D14B
:1009040003F1804303F504331A6822F480321A6039
:100914001A6822F480221A6037E08A4B5B6813F469
:10092400803FE7D0874B1B6813F4003F03D0636814
:10093400002B00F0BF81236813F0020F75D0814BA8
:100944005B6813F00C0F5FD07E4B5B6803F00C0305
:10095400082B54D02369002B00F08A807A4B0122A3
:100964001A60FFF781FF0546764B1B6813F0020FF0
:1009740075D1FFF779FF401B0228F5D903209EE1CA
:10098400704A136843F480331360636843B3FFF71A
:100994006BFF05466B4B1B6813F4003FCBD1FFF78D
:1009A40063FF401B6428F5D9032088E1B3F5A02F29
:1009B40009D0644B1A6822F480321A601A6822F44F
:1009C40080221A60E1E703F18043A3F53C331A68FF
:1009D40042F480221A601A6842F480321A60D4E722
:1009E400FFF742FF0546574B1B6813F4003FA2D0A4
:1009F400FFF73AFF401B6428F5D903205FE1514B10
:100A04005B6813F4803FA5D14E4B1B6813F0020FB3
:100A140003D02369012B40F04F814A4A136823F025
:100A2400F803616943EAC1031360236813F0080FF4
:100A340033D0A369002B5CD0434B0122C3F880243C
:100A4400FFF712FF05463F4B5B6A13F0020F21D1FB
:100A5400FFF70AFF401B0228F5D903202FE1394A8A
:100A6400136823F0F803616943EAC1031360DCE708
:100A7400354B00221A60FFF7F7FE0546314B1B6821
:100A840013F0020FD1D0FFF7EFFE401B0228F5D977
:100A9400032014E10120FFF701FF236813F0040F82
:100AA40000F09680274BDB6913F0805F34D1254B2F
:100AB400DA6942F08052DA61DB6903F08053019312
:100AC400019B0125214B1B6813F4807F26D0E3682A
:100AD400012B3DD0002B53D103F1804303F50433A4
:100AE4001A6A22F001021A621A6A22F004021A62D5
:100AF40033E0154B0022C3F88024FFF7B5FE05460A
:100B0400104B5B6A13F0020FC7D0FFF7ADFE401B1A
:100B14000228F5D90320D2E00025D3E70B4A136855
:100B240043F480731360FFF79FFE0646074B1B6870
:100B340013F4807FCBD1FFF797FE801B6428F5D98F
:100B44000320BCE00010024000004242007000405C
:100B54005F4A136A43F001031362E36833B3FFF798
:100B640083FE06465A4B1B6A13F0020F2FD1FFF780
:100B74007BFE801B41F288339842F3D903209EE028
:100B8400052B09D0524B1A6A22F001021A621A6A22
:100B940022F004021A62E0E74D4B1A6A42F00402A2
:100BA4001A621A6A42F001021A62D6E7FFF75CFE83
:100BB4000646474B1B6A13F0020F08D0FFF754FE9A
:100BC400801B41F288339842F3D9032077E0E5B9DA
:100BD400E369002B72D03E4A526802F00C02082AE4
:100BE40056D0022B17D03B4B00221A66FFF73CFE6F
:100BF4000446374B1B6813F0007F47D0FFF734FEE1
:100C0400001B0228F5D9032059E0314AD36923F0A7
:100C14008053D361DCE72F4B00221A66FFF724FED2
:100C240005462B4B1B6813F0007F06D0FFF71CFE14
:100C3400401B0228F5D9032041E0236AB3F5803F25
:100C44001AD023494B6823F47413226A606A02435E
:100C540013434B601F4B01221A66FFF705FE04463F
:100C64001B4B1B6813F0007F0ED1FFF7FDFD001B2B
:100C74000228F5D9032022E0154A536823F40033EF
:100C8400A1680B435360DCE7002018E0002016E065
:100C9400012B16D00E4B5B6803F48031226A91421B
:100CA40011D103F47013626A93420ED1002006E05E
:100CB40001207047012002E0012000E0002002B082
:100CC40070BD0120FBE70120F9E70120F7E700BF31
:100CD400001002400000424286B0174B0FCB0DF1CA
:100CE400180C0CE90F0040F20123ADF80430134B4B
:100CF4005B6803F00C02082A02D0114806B0704762
:100D0400C3F3834218326A4412F8100C13F4803F80
:100D14000DD00A4B5B68C3F3404318336B4413F89C
:100D2400143C074A02FB00F0B0FBF3F0E6E7054B86
:100D340003FB00F0E2E700BF402700080010024078
:100D440000127A0000093D00002800F0A08070B570
:100D54000D460446524B1B6803F007038B420BD22B
:100D64004F4A136823F007030B431360136803F01F
:100D740007038B4240F08D80236813F0020F17D0D5
:100D840013F0040F04D0474A536843F4E0635360FC
:100D9400236813F0080F04D0424A536843F46053A5
:100DA4005360404A536823F0F003A1680B43536037
:100DB400236813F0010F31D06368012B20D0022B7C
:100DC40025D0384A126812F0020F64D035494A68B7
:100DD40022F0030213434B60FFF746FD0646314BF6
:100DE4005B6803F00C036268B3EB820F16D0FFF765
:100DF4003BFD801B41F288339842F0D9032045E043
:100E0400284A126812F4003FE0D101203EE0254A4E
:100E1400126812F0007FD9D1012037E0204B1B6803
:100E240003F00703AB420AD91D4A136823F00703F2
:100E34002B431360136803F00703AB422DD12368DF
:100E440013F0040F06D0174A536823F4E063E168F3
:100E54000B435360236813F0080F07D0114A5368FB
:100E640023F46053216943EAC1035360FFF734FF5D
:100E74000C4B5B68C3F303130B4AD35CD8400B4B96
:100E840018600B4B1868FFF7ABFC002070BD012005
:100E940070470120FAE70120F8E70120F6E700BFD8
:100EA40000200240001002405427000808000020DF
:100EB40004000020014B1868704700BF08000020A0
:100EC40008B5FFF7F7FF044B5B68C3F30223034A3B
:100ED400D35CD84008BD00BF00100240642700085E
:100EE40008B5FFF7E7FF044B5B68C3F3C223034A6B
:100EF400D35CD84008BD00BF00100240642700083E
:100F040070B582B00024A446B0E0874DAA4210D048
:100F140007D9864DAA420CD005F58035AA4208D0DF
:100F240013E0A5F58015AA4203D005F57025AA4261
:100F340007D18A68002A62D0012A5BD04361082461
:100F440003E0A5F58015AA42F3D0BEF1FF0F58D8EF
:100F54000646BEF1FF0F56D84FEA8C0233680F25C0
:100F6400954023EA050304FA02F2134333604B6805
:100F740013F0805F78D06E4B9A6942F001029A6157
:100F84009B6903F001030193019B4FEA9C02951CAA
:100F9400684B53F825600CF003039D000F23AB400E
:100FA40026EA0306644B984233D003F580639842E3
:100FB40000F0988003F58063984200F0958003F573
:100FC4008063984200F0928003F58063984200F0B9
:100FD4008F8003F58063984219D006231AE0CC6809
:100FE400B3E7CC680434B0E7CC680834ADE7CC6828
:100FF4000C34AAE703610824A7E70024A5E7042426
:10100400A3E7061DA5E7ACF108029200A6E70523B5
:1010140000E00023AB4033430232464D45F8223012
:101024004B6813F4803F65D0444A136843EA0E03C7
:1010340013604B6813F4003F62D0404A536843EA9C
:101044000E0353604B6813F4801F5FD03B4A9368D0
:1010540043EA0E0393604B6813F4001F5CD0374AD5
:10106400D36843EA0E03D3600CF1010C0A6832FA28
:101074000CF357D0012303FA0CF302EA030E33EA0C
:101084000202F1D14A68122A3FF63FAF122A3FF614
:101094005CAF01A555F822F0370F0008E30F0008F4
:1010A400ED0F0008FF0F00084F0F00084F0F000856
:1010B4004F0F00084F0F00084F0F00084F0F000894
:1010C4004F0F00084F0F00084F0F00084F0F000884
:1010D4004F0F00084F0F00084F0F0008E70F0008DC
:1010E400F30F0008012395E7022393E7032391E715
:1010F40004238FE7114A136823EA0E03136098E769
:101104000E4A536823EA0E0353609BE70B4A936825
:1011140023EA0E0393609EE7084AD36823EA0E038A
:10112400D360A1E702B070BD0000221000003110AE
:10113400001002400000014000080140000401408A
:101144000AB101617047090401617047C36801EA8B
:10115400030221EA030141EA02410161704790F868
:101164002130022B06D004238363002380F820302F
:10117400012070470268136823F00E0313600268AD
:10118400136823F001031360036CC16B012202FA9C
:1011940003F34B6080F82120002380F820301846A8
:1011A4007047000008B590F82130022B03D00423C7
:1011B4008363012008BD0268136823F00E031360E3
:1011C4000268136823F00103136003684B4A9342D7
:1011D4004ED9783A934224D01432934230D0143208
:1011E40093422FD0143293422FD0143293422FD0F3
:1011F400143293422FD0143293422FD002F56272EC
:1012040093422ED0143293422DD0143293422CD0D8
:101214001432934202D04FF4803203E04FF48052F0
:1012240000E00122364B5A60012380F8213000236C
:1012340080F82030436B002B5ED098470020B9E73C
:101244001022EFE74FF48072ECE74FF48052E9E7A5
:101254004FF48032E6E74FF48012E3E74FF08072F8
:10126400E0E70122DEE71022DCE74FF48072D9E7E1
:10127400244A934224D01432934225D01432934208
:1012840024D01432934224D01432934224D0143202
:10129400934224D01432934224D002F562729342D2
:1012A40023D01432934222D01432934221D01432E8
:1012B400934202D04FF4803203E04FF4805200E0B6
:1012C4000122114B5A60AFE71022FAE74FF4807203
:1012D400F7E74FF48052F4E74FF48032F1E74FF42C
:1012E4008012EEE74FF08072EBE70122E9E710226B
:1012F400E7E74FF48072E4E700205BE780000240F8
:10130400000402400800024000000240074AD3687B
:1013140023F4E0631B041B0C000200F4E0600343AD
:1013240043F0BF6343F40033D360704700ED00E043
:1013340000B5194BDB68C3F30223C3F1070CBCF1FE
:10134400040F28BF4FF0040C03F1040EBEF1060F86
:1013540018D9033B4FF0FF3E0EFA0CFC21EA0C01B6
:1013640099400EFA03F322EA0303194300280BDB26
:101374000901C9B200F1604000F5614080F8001332
:101384005DF804FB0023E5E700F00F000901C9B292
:10139400024B1954F4E700BF00ED00E014ED00E047
:1013A400002807DB00F01F02400901239340024A92
:1013B40042F82030704700BF00E100E00138B0F18E
:1013C400807F0BD24FF0E0235861054AF02182F868
:1013D40023100020986107221A617047012070478A
:1013E40000ED00E0704700002DE9F04389B00024CF
:1013F40004940594069407942F4B9A6942F0400292
:101404009A619A6902F040020092009A9A6942F045
:1014140008029A619A6902F008020192019A9A6993
:1014240042F020029A619A6902F020020292029A22
:101434009A6942F004029A619B6903F004030393DE
:10144400039BDFF8789022461F214846FFF778FE79
:101454001B4F224643F223013846FFF771FE194E13
:1014640022464FF400513046FFF76AFE1F230493CF
:101474000125059506944FF00208CDF81C8004A9B7
:101484004846FFF73DFD43F2230304930595069474
:10149400CDF81C8004A93846FFF732FD4FF4005301
:1014A4000493059506950323079304A93046FFF793
:1014B40027FD09B0BDE8F083001002400018014088
:1014C400000C01400014014008B501210148FFF758
:1014D4003DFE08BD000C014000B587B00023029317
:1014E4000393049305930093019315484FF08042AE
:1014F400026017224260836040F2E732C2600361F7
:101504008361FFF787F890B94FF48053029302A9DF
:101514000B48FFF7B7F868B90023009301936946B5
:101524000748FFF71DF940B907B05DF804FBFEF763
:1015340077FEE9E7FEF774FEEEE7FEF771FEF3E7E8
:10154400940000200368B3F1804F00D0704700B5C9
:1015540083B003F50433DA6942F00102DA61DB692E
:1015640003F001030193019B002211461C20FFF7A5
:10157400DFFE1C20FFF714FF03B05DF804FB00003E
:1015840008B50368B3F1804F00D008BD074B1B6852
:10159400B3F57A7F03D80133044A1360F5E7FFF704
:1015A40093FF024B00221A60EFE700BF9000002077
:1015B40008B50A480A4B03604FF4E1334360002343
:1015C4008360C36003610C2242618361C36100F0E4
:1015D40007F900B908BDFEF723FEFBE7DC00002095
:1015E4000038014030B587B000230293039304937D
:1015F400059302681B4B9A4201D007B030BD03F536
:1016040058439A6942F480429A619A6902F480428A
:101614000092009A9A6942F004029A619B6903F06D
:1016240004030193019B4FF4007302930223039379
:10163400032305930C4D02A92846FFF761FC4FF4E0
:101644008063029300240394049402A92846FFF7BC
:1016540057FC224621462520FFF76AFE2520FFF786
:101664009FFECAE7003801400008014000B583B07E
:1016740000238DF8073001220DF1070100F0ABFAC9
:1016840003B05DF804FB000070B50E461546002457
:101694000CE0084800F07EFA00F021002128F8D080
:1016A40001223119034800F0CAF80134AC42F0DBDE
:1016B400284670BDDC0000200268D36823F49073D0
:1016C400D3600268536923F001035361036B012B58
:1016D40005D0202380F83E3000230363704702685E
:1016E400D36823F01003D360F3E790F83D30DBB206
:1016F400212B01D0022070478368B3F5805F17D097
:10170400036A5A1C02621A7803685A60C38C9BB23B
:10171400013B9BB2C3844BB90268D36823F08003B6
:10172400D3600268D36843F04003D360002070475D
:101734000369002BE4D1036A1B880268C3F308031E
:101744005360036A02330362E0E7000010B5044605
:101754000268136923F44053C1680B43136183681F
:101764000269134342691A430168CB6823F4B053F6
:1017740023F00C031343CB600268536923F44073D2
:1017840081690B4353610268134B9A4220D0FFF7DF
:1017940097FB024602EB820202EB820263689B0023
:1017A400B2FBF3F20D48A0FB02314909642303FBA9
:1017B40011231B013233A0FB03235B0903F0F00266
:1017C40002EB011203F00F03216813448B6010BD78
:1017D400FFF786FB0246DDE7003801401F85EB5129
:1017E40058B310B5044690F83D300BB3242384F865
:1017F4003D302268D36823F40053D3602046FFF7BA
:10180400A5FF2268136923F4904313612268536986
:1018140023F02A0353612268D36843F40053D3604E
:1018240000202064202384F83D3084F83E3010BD2D
:1018340080F83C30FFF7D6FED8E70120704790F8D7
:101844003D30DBB2202B19D1D1B1DAB190F83C3064
:10185400012B19D0012380F83C3001628284C284B8
:1018640000230364212280F83D2080F83C30016885
:10187400CA6842F08002CA60184670470220704766
:10188400012070470120704702207047704708B557
:101894000168CA6822F04002CA60202280F83D2014
:1018A400FFF7F4FF002008BD704708B5406A002325
:1018B400C385C384FFF7F8FF08BD704790F83E3036
:1018C400DBB2222B60D18368B3F5805F46D0826A95
:1018D400B3F5805F04D0002B4DD10369002B4AD1AE
:1018E40003685B681370836A01338362C38D9BB2A0
:1018F400013B9BB2C385002B48D100B583B002687D
:10190400D36823F02003D3600268D36823F4807380
:10191400D3600268536923F001035361202380F8E4
:101924003E30036B012B2CD1002303630268D36880
:1019340023F01003D36003681A6812F0100F06D066
:10194400002201921A6801925B680193019B818DC8
:10195400FFF7B3FF002003B05DF804FB0269002A1F
:10196400B5D1826A03685B68C3F308031380836A92
:1019740002338362BAE703685B6803F07F03137082
:10198400B1E7FFF773FEE5E70220704700207047D8
:1019940030B583B0044602681368D068516913F007
:1019A4000F0505D113F0200F02D010F0200F19D12C
:1019B4002DB111F0010119D110F4907F16D1216BD2
:1019C400012975D013F0800F03D010F0800F40F080
:1019D400D78013F0400F03D010F0400F40F0D480B4
:1019E40003B030BD2046FFF769FFF9E713F0010F9C
:1019F40006D010F4807F03D0226C42F001022264EE
:101A040013F0040F04D019B1226C42F002022264D4
:101A140013F0020F04D019B1226C42F004022264C4
:101A240013F0080F07D010F0200F00D119B1226C69
:101A340042F008022264226C002AD1D013F0200F55
:101A440002D010F0200F21D123685B6903F040031A
:101A5400226C12F0080F00D123B32046FFF72CFEAE
:101A640023685A6912F0400F18D05A6922F04002D4
:101A74005A61A36B73B1464A5A63A06BFFF792FB9A
:101A84000028ADD0A06B436B9847A9E72046FFF729
:101A940015FFD9E72046FFF707FFA1E72046FFF728
:101AA40003FF9DE72046FFF7FFFE0023236497E72B
:101AB40013F0100F86D010F0100F83D00023019381
:101AC4001368019353680193019B536913F0400F0A
:101AD40032D0A16B0B685B689BB2002B80D0A08DC9
:101AE40098427FF67DAFE3858B69202B08D1A18DC9
:101AF400E38D9BB2C91A89B22046FFF7DEFE6FE779
:101B0400D36823F48073D3602268536923F00103FC
:101B140053612268536923F040035361202384F8FE
:101B24003E30002323632268D36823F01003D3607C
:101B3400A06BFFF714FBDAE7A18DE38D9BB2C91A02
:101B440089B2E38D9BB2002B3FF44AAF00293FF4E6
:101B540047AFD36823F49073D3602268536923F0AA
:101B640001035361202384F83E3000232363226859
:101B7400D36823F01003D3602046FFF79EFE2FE7BF
:101B84002046FFF7B2FD2BE72046FFF780FE27E74C
:101B9400AF18000890F83D3090F83E0018437047A5
:101BA400034681628285C28500201864222283F85C
:101BB4003E2083F83C001968CA6842F48072CA6007
:101BC40019684A6942F001024A611A68D36843F00D
:101BD4002003D360704708B590F83E30DBB2202B69
:101BE4000DD171B17AB190F83C30012B0DD00123A5
:101BF40080F83C3000230363FFF7D2FF00E00220AB
:101C040008BD0120FCE70120FAE70220F8E7000004
:101C14000C480D490D4A002302E0D458C450043343
:101C2400C4188C42F9D30A4A0A4C002301E0136019
:101C34000432A242FBD3FFF7D5FB00F00FF8FEF706
:101C440023FB70470000002070000020D827000804
:101C54007000002034010020FEE7000070B500266B
:101C64000C4D0D4C641BA410A64209D100F04EFD8E
:101C740000260A4D0A4C641BA410A64205D170BD6F
:101C840055F8043B98470136EEE755F8043B98476E
:101C94000136F2E7D0270008D0270008D027000833
:101CA400D427000803460244934200D1704703F846
:101CB400011BF9E770B50E46054618B183690BB9E7
:101CC40000F044FAAB69AC6813B9284600F03EFA58
:101CD4002C4B9C4220D16C68636EDB0705D4A3892E
:101CE400980502D4A06D00F0CFFAA38919071DD579
:101CF4002369DBB1013EA36816F8011F013BA36011
:101D040039BB002B38DA22460A21284600F048F86D
:101D1400013011D00A2511E01B4B9C4201D1AC6863
:101D2400DAE71A4B9C4208BFEC68D5E721462846FF
:101D340000F088F80028DDD04FF0FF35636EDA0735
:101D440005D4A3899B0502D4A06D00F09EFA284611
:101D540070BD002B04DAA2699A4206DC0A2904D079
:101D640023685A1C22601970C5E72246284600F0F1
:101D740017F80130BFD1DFE70A2523685A1C226017
:101D84001D70DBE790270008B027000870270008C3
:101D9400024B01461868FFF78DBF00BF0C000020FE
:101DA400F8B50E461446054618B183690BB900F020
:101DB400CDF9214B9C422BD16C68A369A360A38904
:101DC4001A072FD523696BB323692068F6B2C01AAA
:101DD40063693746834204DC2146284600F022F931
:101DE40030BBA3680130013BA36023685A1C226006
:101DF4001E706369834204D0A389DB0706D50A2ECB
:101E040004D12146284600F00DF988B93846F8BDBA
:101E14000A4B9C4201D1AC68CFE7094B9C4208BFF6
:101E2400EC68CAE72146284600F00CF80028CBD01D
:101E34004FF0FF37EAE700BF90270008B0270008FB
:101E440070270008324B70B51D6806460C4625B154
:101E5400AB6913B9284600F079F92E4B9C420FD197
:101E64006C68A389B4F90C2019072CD4DD0611D4AD
:101E74000923336042F040034FF0FF30A3813EE07A
:101E8400254B9C4201D1AC68EBE7244B9C4208BF34
:101E9400EC68E6E7580712D5616B41B104F14403DD
:101EA400994202D0304600F057FA00236363A389B5
:101EB40023F02403A3810023636023692360A3899F
:101EC40043F00803A38123694BB9A38903F4207366
:101ED400B3F5007F03D02146304600F0FDF9A08918
:101EE400B4F90C2010F001030AD00023A360636945
:101EF4005B42A361236943B910F08000BAD170BD7D
:101F0400810758BF6369A360F4E70020F7E700BFC7
:101F14000C00002090270008B02700087027000854
:101F24008A89F8B5054610070C4657D44B68002B30
:101F340004DC0B6C002B01DC0020F8BDE66A002EEB
:101F4400FAD0002312F480522F682B6032D0606DD7
:101F5400A3895A0705D56368C01A636B0BB1236C58
:101F6400C01A00230246E66A2846216AB047431C89
:101F7400A38906D129681D292CD8294ACA40D60725
:101F840028D5002262602269D904226004D5421C4B
:101F940001D12B6803B96065616B2F600029CBD038
:101FA40004F14403994202D0284600F0D5F90020F8
:101FB4006063C2E7216A01232846B047411CC7D1A8
:101FC4002B68002BC4D01D2B01D0162B01D12F6000
:101FD400B2E7A38943F04003A381AEE70F69002F62
:101FE400AAD0930718BF00230E6808BF4B69F61BDD
:101FF4000F608B60002E9FDD33463A462846216AE7
:10200400D4F828C0E047002806DCA3894FF0FF304D
:1020140043F04003A38190E70744361AEAE700BF80
:102024000100402038B50B6905460C4613B900255C
:10203400284638BD18B183690BB900F087F8144BF2
:102044009C421BD16C68B4F90C30002BEFD0626E4B
:10205400D00704D4990502D4A06D00F015F92846E0
:102064002146FFF75DFF636E0546DA07E0D4A389D6
:102074009B05DDD4A06D00F008F9D9E7054B9C421F
:1020840001D1AC68DFE7044B9C4208BFEC68DAE797
:1020940090270008B027000870270008002310B517
:1020A4000446C0E90033C0E9043383608181436698
:1020B400C2818361194608225C30FFF7F3FD054BAA
:1020C40024626362044BA362044BE362044B236304
:1020D40010BD00BF35250008572500088F250008CE
:1020E400B3250008014900F0AFB800BF292000085B
:1020F400682270B54D1E55430E4605F1740100F07B
:1021040093F9044640B10021C0E900160C30A060E8
:1021140005F16802FFF7C6FD204670BD014800F0D6
:10212400B3B800BF21010020014800F0AEB800BFE1
:1021340021010020014800F0A7B800BF22010020BF
:10214400014800F0A2B800BF2201002010B50446E7
:10215400FFF7F0FFA3691BB1BDE81040FFF7F0BF24
:10216400C4E912332365134B134A1B68A262A342CA
:1021740008BF0123204608BFA36100F01FF8606078
:10218400204600F01BF8A060204600F017F800225B
:102194000421E0606068FFF781FF01220921A06843
:1021A400FFF77CFF02221221E068FFF777FF01238B
:1021B400A361D1E76C270008E9200008F8B50746B9
:1021C400FFF7ACFF1E4B1E68B36913B93046FFF727
:1021D400BDFF4836D6E90134013B03D533680BB360
:1021E4003668F7E7B4F90C50D5B9164B04F158002A
:1021F400E360656600F047F8FFF796FF082229467A
:10220400C4E90155C4E904552560A56104F15C00E5
:10221400FFF748FDC4E90D55C4E912552046F8BD41
:102224006834D9E704213846FFF762FF044630607A
:102234000028D5D1FFF778FF0C233B60EEE700BF01
:102244006C2700080100FFFF2DE9F8430646884685
:10225400002700F14804D4E90195B9F1010905D535
:102264002468002CF7D13846BDE8F883AB89012BEC
:1022740007D9B5F90E30013303D029463046C0479B
:1022840007436835E9E770477047704770B50E46F5
:10229400B1F90E10144600291D4696B008DA002242
:1022A400B6F90C302A601A0610D44FF480630EE09D
:1022B4006A4600F0A3F90028F1DB019A02F47042A7
:1022C400A2F500535A425A412A60EEE74023002007
:1022D400236016B070BD00008B8973B59D07064658
:1022E4000C4607D504F1470323602361012363618E
:1022F40002B070BD6A4601ABFFF7C8FF00990546FE
:10230400304600F091F848B9B4F90C309A05EFD48E
:1023140023F0030343F00203A381E3E70D4BB3620D
:10232400A389206043F08003A381009B2061636143
:10233400019B5BB13046B4F90E1000F071F928B17D
:10234400A38923F0030343F00103A381A089054378
:10235400A581CDE7E920000838B50546002940D01D
:1023640051F8043C0C1F002BB8BFE41800F07AF9B4
:102374001C4A136833B9636014602846BDE83840CA
:1023840000F076B9A34208D9206821188B4201BF16
:1023940019685B6809182160EDE71A465B680BB1A0
:1023A400A342FAD911685018A0420BD12068014405
:1023B400501883421160E0D118685B6801441160D1
:1023C4005360DAE702D90C232B60D6E72068211882
:1023D4008B4201BF19685B6809182160636054600F
:1023E400CBE738BD2401002070B50E4E0C46316891
:1023F400054611B900F08CF830602146284600F0FB
:1024040087F8431C0AD0C41C24F00304A04207D05C
:10241400211A284600F07CF8013001D14FF0FF3436
:10242400204670BD280100202DE9F041CD1C25F087
:10243400030508350C2D38BF0C25002D074601DB9C
:10244400A94205D90C2300263B603046BDE8F08143
:102454002E4E00F007F933681C4634BB2946384633
:10246400FFF7C2FF431C04464DD134682646002EB4
:1024740040D123683146384604EB030800F048F89D
:1024840080453AD1216803356D1A25F003050835D6
:102494000C2D38BF0C2538462946FFF7A5FF01301F
:1024A4002BD023682B4423600EE02268521B1ED4D9
:1024B4000B2A16D96119A342256018BF59606368B5
:1024C40008BF316062514B60384604F10B0600F0DE
:1024D400CFF826F00706231DF21AB6D09B1BA35093
:1024E400B3E76268A3420CBF32605A60ECE723464C
:1024F4006468B2E734467668B9E70C2338463B6033
:1025040000F0B6F8A1E72560DEE700BF2401002053
:1025140038B50023054D044608462B6000F0E8F862
:10252400431C02D12B6803B1236038BD2C01002069
:1025340010B50C46B1F90E1000F0A0F80028ABBF9E
:10254400636DA3891B1823F48053ACBF6365A38117
:1025540010BD2DE9F0411F468B890546DB050C466D
:10256400164605D502230022B1F90E1000F068F8D2
:10257400A389324623F48053A38128463B46B4F909
:102584000E10BDE8F04100F017B810B50C46B1F9D3
:102594000E1000F055F8431CA38915BF606523F4A1
:1025A400805343F48053A38118BFA38110BDB1F9B4
:1025B4000E1000F013B8000038B504460846114662
:1025C4000022054D2A601A46FFF75EF8431C02D12B
:1025D4002B6803B1236038BD2C01002038B50023DB
:1025E400054D044608462B6000F05AF8431C02D1FE
:1025F4002B6803B1236038BD2C01002038B50023BB
:10260400064D0446084611462B6000F051F8431C61
:1026140002D12B6803B1236038BD00BF2C01002018
:1026240038B50023054D044608462B6000F048F8F1
:10263400431C02D12B6803B1236038BD2C01002058
:1026440038B50446084611460022054D2A601A464C
:1026540000F03EF8431C02D12B6803B1236038BD5F
:102664002C0100200148FFF70FBE00BF200100200D
:102674000148FFF70ABE00BF2001002038B5044618
:10268400084611460022054D2A601A4600F028F833
:10269400431C02D12B6803B1236038BD2C010020F8
:1026A4005822024B4FF0FF301A6070472C01002073
:1026B4005822024B4FF0FF301A6070472C01002063
:1026C4005822024B00201A60704700BF2C010020E2
:1026D4005822024B4FF0FF301A6070472C01002043
:1026E4005822024B4FF0FF301A6070472C01002033
:1026F400044A05491368002B08BF0B4618441060B0
:10270400184670473001002038010020F8B500BF9A
:10271400F8BC08BC9E467047F8B500BFF8BC08BCBE
:042724009E46704716
:1027280068656C6C6F20776F726C642077616E6778
:1027380068616F0D00000000020304050607080920
:102748000A0B0C0D0E0F1010000000000000000016
:102758000000000001020304060708090000000049
:102768000102030410000020000000000000000027
:102778000000000000000000000000000000000051
:102788000000000000000000000000000000000041
:102798000000000000000000000000000000000031
:1027A8000000000000000000000000000000000021
:1027B8000000000000000000000000000000000011
:0827C800000000000000000009
:0427D00009020008F2
:0427D400E501000813
:1027D80001000000100000000024F4001000002098
:1027E8000000000090270008B027000870270008A4
:1027F80000000000000000000000000000000000D1
:1028080000000000000000000000000000000000C0
:1028180000000000000000000000000000000000B0
:1028280000000000000000000000000000000000A0
:102838000000000000000000000000000000000090
:0400000508001C15BE
:00000001FF
