:020000040800F2
:10000000000003203D150008692300088D15000835
:100010006D2300087123000875230008000000000C
:100020000000000000000000000000008D15000826
:100030007923000800000000C102000863020008E4
:100040008D1500088D1500088D1500088D15000808
:100050008D1500088D1500088D1500088D150008F8
:100060008D1500088D1500088D1500088D150008E8
:100070008D1500088D1500088D1500088D150008D8
:100080008D1500088D1500088D1500088D150008C8
:100090008D1500088D1500088D1500088D150008B8
:1000A0008D1500088D1500088D1500088D150008A8
:1000B000851D00088D1500088D1500088D15000898
:1000C0008D1500088D1500088D1500088D15000888
:1000D0008D1500081D210008052200088D15000857
:1000E0008D1500088D1500088D1500088D15000868
:1000F0008D1500088D1500088D1500088D15000858
:100100008D1500088D1500088D1500088D15000847
:100110008D1500088D1500088D1500088D15000837
:100120008D1500088D1500088D1500088D15000827
:100130008D1500088D1500088D1500088D15000817
:100140008D1500088D1500088D1500088D15000807
:100150008D1500088D1500088D1500088D150008F7
:100160008D1500088D1500088D1500088D150008E7
:100170008D1500088D1500088D1500080000000081
:100180008D1500088D1500088D1500088D150008C7
:100190008D1500088D1500088D1500088D150008B7
:0C01A0008D1500088D1500088D15000855
:1001C00010B5054C237833B9044B13B10448AFF391
:1001D00000800123237010BDB8090020000000003A
:1001E00060C4000808B5034B1BB103490348AFF3D3
:1001F000008008BD00000000BC09002060C40008A9
:1002000072B61D481D4901F1040101604FF0E02064
:100210001B49C0F8081D1B481949096801601A48A4
:10022000016841F0010101604FF0E0201749416190
:100230004FF0070101614FF00001C0F8181D4FF0A9
:100240007F41C0F81C1D1249C0F8201D7047FFF700
:10025000FEBFFFF7FEBFFFF7FEBF01B5BDE80140DF
:10026000704701B500F08CF8BDE801407047FFF71A
:10027000FEBFFFF7FEBF0000006800207074002082
:1002800000000008C4680020001000E03F90020059
:100290000000FF400000000000000000000000001F
:1002A0004FF00000224A106062B64FF080504FF0CD
:1002B000E021C1F8040DBFF34F8FBFF36F8FFEE74E
:1002C0001C481D4A4FF00003016869B10360EFF359
:1002D000098C2CE9F00F194C4CF804ED2568C1F895
:1002E00008C00DB18D61236072B6116889B10160DB
:1002F00062B64F68114C8D6907F101074F602560A8
:10030000D1F808C05CF804EBBCE8F00F8CF3098866
:10031000704772B61168016009B962B6F9E74FF02B
:1003200000674FF0E028C8F8047D62B6E1E70000FE
:1003300038680020286800202C6800202C6E0020DF
:10034000026922F00702A2F144026FF00203136077
:100350004FF0000353609360D36013615361936166
:10036000D361136253629362D362136353634FF09A
:10037000FF339363D1634FF08073136482607047DF
:100380002649086800F101000860254B1A68002A18
:1003900008D0A2F101021A60002A03D1214B4FF0CC
:1003A00001001860204908680268002A04D01F4B29
:1003B0004FF001021A6008E000F104001C4B1A68BB
:1003C000904201D11B4B18680860164B1A68002A2E
:1003D00003D11649086800281CD02DE901401349B3
:1003E0000868002801D003F0B1FF0E4B1A68002AFC
:1003F0000ED003F053FF1048016849B90F48016857
:100400000F4A13680F484FF08052994200D00260A3
:10041000BDE80140BFF34F8F7047000074690020B2
:100420002C6E0020D8680020D0680020D4680020FE
:100430006069002064690020386800202868002076
:100440002C68002004ED00E081F0004102E000BFD4
:1004500083F0004330B54FEA41044FEA430594EA84
:10046000050F08BF90EA020F1FBF54EA000C55EABF
:10047000020C7FEA645C7FEA655C00F0E2804FEA90
:100480005454D4EB5555B8BF6D420CDD2C4480EA72
:10049000020281EA030382EA000083EA010180EAA2
:1004A000020281EA0303362D88BF30BD11F0004FF0
:1004B0004FEA01314FF4801C4CEA113102D0404226
:1004C00061EB410113F0004F4FEA03334CEA133361
:1004D00002D0524263EB430394EA050F00F0A78079
:1004E000A4F10104D5F1200E0DDB02FA0EFC22FA74
:1004F00005F2801841F1000103FA0EF2801843FA68
:1005000005F359410EE0A5F120050EF1200E012A58
:1005100003FA0EFC28BF4CF0020C43FA05F3C01896
:1005200051EBE37101F0004507D54FF0000EDCF10F
:10053000000C7EEB00006EEB0101B1F5801F1BD3B8
:10054000B1F5001F0CD349085FEA30004FEA3C0CBC
:1005500004F101044FEA445212F5800F80F09A80B2
:10056000BCF1004F08BF5FEA500C50F1000041EBB6
:10057000045141EA050130BD5FEA4C0C404141EBBA
:100580000101013C28BFB1F5801FE9D291F0000FB5
:1005900004BF01460020B1FA81F308BF2033A3F164
:1005A0000B03B3F120020CDA0C3208DD02F1140C5B
:1005B000C2F10C0201FA0CF021FA02F10CE002F196
:1005C0001402D8BFC2F1200C01FA02F120FA0CFC8F
:1005D000DCBF41EA0C019040E41AA2BF01EB0451D8
:1005E000294330BD6FEA04041F3C1CDA0C340EDCD6
:1005F00004F11404C4F1200220FA04F001FA02F319
:1006000040EA030021FA04F345EA030130BDC4F1D6
:100610000C04C4F1200220FA02F001FA04F340EACB
:100620000300294630BD21FA04F0294630BD94F07C
:10063000000F83F4801306BF81F480110134013D63
:100640004EE77FEA645C18BF7FEA655C29D094EAD4
:10065000050F08BF90EA020F05D054EA000C04BF52
:100660001946104630BD91EA030F1EBF002100203D
:1006700030BD5FEA545C05D14000494128BF41F0DC
:10068000004130BD14F580043CBF01F5801130BD40
:1006900001F0004545F0FE4141F470014FF00000CB
:1006A00030BD7FEA645C1ABF194610467FEA655C7C
:1006B0001CBF0B46024650EA013406BF52EA03351E
:1006C00091EA030F41F4002130BD00BF90F0000F0C
:1006D00004BF0021704730B54FF4806404F1320448
:1006E0004FF000054FF0000150E700BF90F0000F01
:1006F00004BF0021704730B54FF4806404F1320428
:1007000010F0004548BF40424FF000013EE700BFF7
:1007100042004FEAE2014FEA31014FEA02701FBF87
:1007200012F07F4393F07F4F81F06051704732F0B9
:100730007F4208BF704793F07F4F04BF41F4002110
:10074000704730B54FF4607401F0004521F000416E
:100750001CE700BF50EA010208BF704730B54FF0F8
:1007600000050AE050EA010208BF704730B511F0F9
:10077000004502D5404261EB41014FF4806404F131
:1007800032045FEA915C3FF4D8AE4FF003025FEAB7
:10079000DC0C18BF03325FEADC0C18BF033202EB3B
:1007A000DC02C2F1200300FA03FC20FA02F001FA95
:1007B00003FE40EA0E0021FA02F11444BDE600BF38
:1007C00053B94AB9002908BF00281CBF4FF0FF31B8
:1007D0004FF0FF3000F074B9ADF1080C6DE904CEB4
:1007E00000F006F8DDF804E0DDE9022304B070470C
:1007F0002DE9F047089D04468E46002B4DD18A42D4
:10080000944669D9B2FA82F252B101FA02F3C2F106
:10081000200120FA01F10CFA02FC41EA030E944097
:100820004FEA1C48210CBEFBF8F61FFA8CF708FBB8
:1008300016E341EA034306FB07F199420AD91CEB90
:10084000030306F1FF3080F01F81994240F21C81C2
:10085000023E63445B1AA4B2B3FBF8F008FB10330A
:1008600044EA034400FB07F7A7420AD91CEB04043F
:1008700000F1FF3380F00A81A74240F2078164440F
:10088000023840EA0640E41B00261DB1D440002394
:10089000C5E900433146BDE8F0878B4209D9002DF8
:1008A00000F0EF800026C5E9000130463146BDE882
:1008B000F087B3FA83F6002E4AD18B4202D38242EC
:1008C00000F2F980841A61EB030301209E46002D9B
:1008D000E0D0C5E9004EDDE702B9FFDEB2FA82F2F0
:1008E000002A40F09280A1EB0C014FEA1C471FFA4E
:1008F0008CFE0126200CB1FBF7F307FB131140EA35
:1009000001410EFB03F0884208D91CEB010103F101
:10091000FF3802D2884200F2CB804346091AA4B2C3
:10092000B1FBF7F007FB101144EA01440EFB00FE97
:10093000A64508D91CEB040400F1FF3102D2A645FC
:1009400000F2BB800846A4EB0E0440EA03409CE79B
:10095000C6F12007B34022FA07FC4CEA030C20FA48
:1009600007F401FA06F31C43F9404FEA1C4900FA68
:1009700006F3B1FBF9F8200C1FFA8CFE09FB1811E5
:1009800040EA014108FB0EF0884202FA06F20BD958
:100990001CEB010108F1FF3A80F08880884240F2A8
:1009A0008580A8F102086144091AA4B2B1FBF9F0EC
:1009B00009FB101144EA014100FB0EFE8E4508D9E7
:1009C0001CEB010100F1FF346CD28E456AD902386C
:1009D000614440EA0840A0FB0294A1EB0E01A14251
:1009E000C846A64656D353D05DB1B3EB080261EBBF
:1009F0000E0101FA07F722FA06F3F1401F43C5E999
:100A0000007100263146BDE8F087C2F12003D840CE
:100A10000CFA02FC21FA03F3914001434FEA1C4710
:100A20001FFA8CFEB3FBF7F007FB10360B0C43EA02
:100A3000064300FB0EF69E4204FA02F408D91CEBB2
:100A4000030300F1FF382FD29E422DD902386344B0
:100A50009B1B89B2B3FBF7F607FB163341EA034150
:100A600006FB0EF38B4208D91CEB010106F1FF389F
:100A700016D28B4214D9023E6144C91A46EA004696
:100A800038E72E46284605E70646E3E61846F8E628
:100A90004B45A9D2B9EB020864EB0C0E0138A3E771
:100AA0004646EAE7204694E74046D1E7D0467BE752
:100AB000023B614432E7304609E76444023842E7CA
:100AC000704700BF000000000000000000000000B0
:100AD0000000000000000000000000000000000016
:100AE0000000000000000000000000000000000006
:100AF00000000000000000000000000000000000F6
:100B000090F800F06DE9024520F007016FF0000C4D
:100B100010F0070491F820F040F049804FF00004F5
:100B20006FF00700D1E9002391F840F000F10800D0
:100B300082FA4CF2A4FA8CF283FA4CF3A2FA8CF308
:100B40004BBBD1E9022382FA4CF200F10800A4FA6F
:100B50008CF283FA4CF3A2FA8CF3E3B9D1E90423C3
:100B600082FA4CF200F10800A4FA8CF283FA4CF3FA
:100B7000A2FA8CF37BB9D1E9062301F1200182FAB4
:100B80004CF200F10800A4FA8CF283FA4CF3A2FABA
:100B90008CF3002BC6D0002A04BF04301A4612BAC8
:100BA000B2FA82F2FDE8024500EBD2007047D1E9CB
:100BB000002304F00305C4F100004FEAC50514F05A
:100BC000040F91F840F00CFA05F562EA05021CBF2B
:100BD00063EA050362464FF00004A9E70000000045
:100BE00001F0FF01102A2BDB10F0070F08D010F8DE
:100BF000013B013A8B422DD010F0070F42B3F6D1E2
:100C0000F0B441EA012141EA014122F007047FF0FA
:100C100000070023F0E80256083C85EA010586EA51
:100C2000010685FA47F5A3FA87F586FA47F6A5FA8D
:100C300087F68EB9EED1F0BC01F0FF0102F0070299
:100C400032B110F8013B013A83EA010313B1F8D144
:100C50000020704701387047002D06BF3546033825
:100C6000073815F0010F07D1013015F4807F02BF5E
:100C7000013015F4C03F0130F0BC0138704700BFAF
:100C8000844641EA000313F003036DD1403A41D397
:100C900051F8043B40F8043B51F8043B40F8043B56
:100CA00051F8043B40F8043B51F8043B40F8043B46
:100CB00051F8043B40F8043B51F8043B40F8043B36
:100CC00051F8043B40F8043B51F8043B40F8043B26
:100CD00051F8043B40F8043B51F8043B40F8043B16
:100CE00051F8043B40F8043B51F8043B40F8043B06
:100CF00051F8043B40F8043B51F8043B40F8043BF6
:100D000051F8043B40F8043B51F8043B40F8043BE5
:100D1000403ABDD2303211D351F8043B40F8043B85
:100D200051F8043B40F8043B51F8043B40F8043BC5
:100D300051F8043B40F8043B103AEDD20C3205D395
:100D400051F8043B40F8043B043AF9D2043208D08D
:100D5000D2071CBF11F8013B00F8013B01D30B88FF
:100D600003806046704700BF082A13D38B078DD0DD
:100D700010F003038AD0C3F10403D21ADB071CBFAF
:100D800011F8013B00F8013B80D331F8023B20F819
:100D9000023B7BE7043AD9D3013A11F8013B00F852
:100DA000013BF9D20B7803704B7843708B788370DA
:100DB0006046704770B54FF0FF0C4CF4E06C1CEAD5
:100DC00011541DBF1CEA135594EA0C0F95EA0C0F41
:100DD00000F0DEF82C4481EA030621EA4C5123EAB4
:100DE0004C5350EA013518BF52EA033541F48011E3
:100DF00043F4801338D0A0FB02CE4FF00005E1FB96
:100E000002E506F00042E0FB03E54FF00006E1FBDF
:100E100003569CF0000F18BF4EF0010EA4F1FF0422
:100E2000B6F5007F64F5407404D25FEA4E0E6D4162
:100E300046EB060642EAC62141EA55514FEAC52073
:100E400040EA5E504FEACE2EB4F1FD0C88BFBCF5EF
:100E5000E06F1ED8BEF1004F08BF5FEA500E50F1A0
:100E6000000041EB045170BD06F0004646EA010166
:100E700040EA020081EA0301B4EB5C04C2BFD4EB98
:100E80000C0541EA045170BD41F480114FF0000E91
:100E9000013C00F3AB8014F1360FDEBF002001F0FF
:100EA000004170BDC4F10004203C35DA0C341BDC79
:100EB00004F11404C4F1200500FA05F320FA04F04B
:100EC00001FA05F240EA020001F0004221F000417F
:100ED00010EBD37021FA04F642EB06015EEA430EF2
:100EE00008BF20EAD37070BDC4F10C04C4F1200522
:100EF00000FA04F320FA05F001FA04F240EA0200D5
:100F000001F0004110EBD37041F100015EEA430EA5
:100F100008BF20EAD37070BDC4F1200500FA05F2C5
:100F20004EEA020E20FA04F301FA05F243EA020344
:100F300021FA04F001F0004121FA04F220EA020053
:100F400000EBD3705EEA430E08BF20EAD37070BD99
:100F500094F0000F0FD101F00046400041EB010179
:100F600011F4801F08BF013CF7D041EA060195F05B
:100F7000000F18BF704703F00046520043EB030315
:100F800013F4801F08BF013DF7D043EA0603704702
:100F900094EA0C0F0CEA135518BF95EA0C0F0CD00D
:100FA00050EA410618BF52EA4306D1D181EA030153
:100FB00001F000414FF0000070BD50EA410606BF4D
:100FC0001046194652EA430619D094EA0C0F02D192
:100FD00050EA013613D195EA0C0F05D152EA0336D7
:100FE0001CBF104619460AD181EA030101F00041F5
:100FF00041F0FE4141F470014FF0000070BD41F03E
:10100000FE4141F4780170BD70B54FF0FF0C4CF417
:10101000E06C1CEA11541DBF1CEA135594EA0C0F36
:1010200095EA0C0F00F0A7F8A4EB050481EA030E83
:1010300052EA03354FEA013100F088804FEA03336A
:101040004FF0805545EA131343EA12634FEA022238
:1010500045EA111545EA10654FEA00260EF00041F9
:101060009D4208BF964244F1FD0404F5407402D24B
:101070005B084FEA3202B61A65EB03055B084FEADC
:1010800032024FF480104FF4002CB6EB020E75EBD9
:10109000030E22BFB61A754640EA0C005B084FEA01
:1010A0003202B6EB020E75EB030E22BFB61A75467E
:1010B00040EA5C005B084FEA3202B6EB020E75EBC9
:1010C000030E22BFB61A754640EA9C005B084FEA41
:1010D0003202B6EB020E75EB030E22BFB61A75464E
:1010E00040EADC0055EA060E18D04FEA051545EA3D
:1010F00016754FEA06164FEAC30343EA52734FEAE6
:10110000C2025FEA1C1CC0D111F4801F0BD141EA5E
:1011100000014FF000004FF0004CB6E711F4801FC3
:1011200004BF01430020B4F1FD0C88BFBCF5E06FA3
:101130003FF6AFAEB5EB030C04BFB6EB020C5FEAB3
:10114000500C50F1000041EB045170BD0EF0004E08
:101150004EEA113114EB5C04C2BFD4EB0C0541EA3A
:10116000045170BD41F480114FF0000E013C90E637
:1011700045EA060E8DE60CEA135594EA0C0F08BFFB
:1011800095EA0C0F3FF43BAF94EA0C0F0AD150EAFA
:1011900001347FF434AF95EA0C0F7FF425AF10468D
:1011A00019462CE795EA0C0F06D152EA03353FF4B5
:1011B000FDAE1046194622E750EA410618BF52EA32
:1011C00043067FF4C5AE50EA41047FF40DAF52EA06
:1011D00043057FF4EBAE12E74FF0FF3C06E000BFA3
:1011E0004FF0010C02E000BF4FF0010C4DF804CDB0
:1011F0004FEA410C7FEA6C5C4FEA430C18BF7FEA70
:101200006C5C1BD001B050EA410C0CBF52EA430C9D
:1012100091EA030F02BF90EA020F0020704710F11D
:10122000000F91EA030F58BF994208BF90422CBFAC
:10123000D8176FEAE37040F0010070474FEA410CA5
:101240007FEA6C5C02D150EA013C07D14FEA430CC3
:101250007FEA6C5CD6D152EA033CD3D05DF8040B34
:10126000704700BF8446104662468C461946634666
:1012700000E000BF01B5FFF7B7FF002848BF10F13D
:10128000000F01BD4DF808EDFFF7F4FF0CBF012082
:1012900000205DF808FB00BF4DF808EDFFF7EAFFFE
:1012A00034BF012000205DF808FB00BF4DF808EDB9
:1012B000FFF7E0FF94BF012000205DF808FB00BFAE
:1012C0004DF808EDFFF7CEFF94BF012000205DF838
:1012D00008FB00BF4DF808EDFFF7C4FF34BF012045
:1012E00000205DF808FB00BF4FEA410C7FEA6C5C10
:1012F00002D150EA013C0AD14FEA430C7FEA6C5C10
:1013000002D152EA033C02D14FF0000070474FF087
:10131000010070474FEA410212F5001215D211D5B3
:101320006FF47873B3EB625212D94FEAC12343F0E2
:10133000004343EA505311F0004F23FA02F018BF64
:10134000404270474FF00000704750EA013005D12D
:1013500011F0004008BF6FF0004070474FF00000F0
:10136000704700BF70B50D4E0D4D761BB61006D000
:10137000002455F8043B01349847A642F9D1094EA0
:10138000094D761B0BF06CF8B61006D0002455F80A
:10139000043B01349847A642F9D170BDF0CB000858
:1013A000F0CB0008F8CB0008F0CB0008830730B57D
:1013B00048D0541E002A3FD0CAB2034601E0013C87
:1013C0003AD303F8012B9D07F9D1032C2DD9CDB2C7
:1013D00045EA05250F2C45EA054536D9A4F110024A
:1013E00022F00F0C03F1200EE6444FEA121C03F129
:1013F000100242E9045542E9025510327245F8D113
:101400000CF1010214F00C0F03EB021204F00F0CAC
:1014100013D0ACF1040323F003030433134442F864
:10142000045B9342FBD10CF003042CB1CAB21C4400
:1014300003F8012B9C42FBD130BD64461346002CBF
:10144000F4D1F9E703461446BFE71A46A446E0E79D
:10145000024B13B1024800F005B8704700000000CD
:1014600071140008002301461A46184600F01EB801
:1014700038B5084B084D5B1B9C1007D0043B1D443E
:10148000013C55F804399847002CF9D1BDE83840A3
:101490000AF0ECBFFCCB0008F8CB0008704700BF97
:1014A000704700BF704700BF704700BF2DE9F0478D
:1014B000DFF880A00646DAF8000098460F4691460D
:1014C000FFF7F0FF1A4B1B68D3F8484124B3656857
:1014D0001F2D26DC5EB96B1C0235DAF80000636054
:1014E00044F82570FFF7E0FF0020BDE8F08704EB2B
:1014F00085010123C1F88890D4F88821AB401A43B4
:10150000022EC4F88821C1F80881E4D1D4F88C21D6
:101510001343C4F88C31DEE703F5A674C3F84841E1
:10152000D5E7DAF80000FFF7BFFF4FF0FF30DCE748
:1015300078C4000830040020FEE700BFDFF834D094
:10154000002103E00C4B5B58435004310B480C4B1B
:1015500042189A42F6D30B4A02E0002342F8043BB9
:10156000094B9A42F9D301F061F9FFF7FBFE01F054
:1015700005F9704700000320FCCB000800000020A4
:10158000B8090020B80900206C6E0020FEE70000BA
:1015900010B596B001F072F90023CDE90433CDE91E
:1015A0000633CDE90C33CDE90E332B4C0193089370
:1015B000216C2A4A41F080512164216C01F0805154
:1015C000019101990293136843F440431360136837
:1015D000012003F440434FF48031CDE90A01029326
:1015E0004FF4800102230822CDE9103102981292B3
:1015F0004FF4A87104220AA8CDE91313159201F043
:1016000019FB00B1FEE79FED107B8DED047B9FED94
:10161000107B4FF4805304A805218DED067B0893C1
:1016200001F0F4FC00B1FEE70390636C43F48043E7
:101630006364636C03F480430393039B01F048F9F4
:1016400016B010BDAFF300800F00000002000000D4
:10165000000000000014000000380240007000404C
:1016600008B500F015F800F05DF900F06DFB00F032
:101670002FFC00F01FF8BDE8084000F075BA00BF6D
:1016800001B1FEE7704700BF00F0E8B9704700BF46
:101690004FF0E021064BD1F8FC2D002042F0807283
:1016A000C1F8FC2D58601A6842F001021A607047B8
:1016B000001000E010B5A2B04C4B4D48002400943F
:1016C0001A6B42F008021A631A6B02F008020092C9
:1016D000009A01941A6B42F010021A631A6B02F01E
:1016E00010020192019A02941A6B42F040021A63AE
:1016F0001A6B02F040020292029A03941A6B42F0B3
:1017000080021A631A6B02F080020392039A049417
:101710001A6B42F480721A631A6B02F4807204929C
:10172000049A05949A6B42F001029A639B6B03F052
:10173000010305930C214CF233720223CDE90E23F1
:1017400012910122059B0EA90323CDE9102301F07C
:1017500025F94FF6807327480E930EA901F01EF964
:1017600040F2032324480E930EA901F017F94FF419
:101770007F4322480E930EA901F010F940F2CF6387
:101780001F480E930EA901F009F9442221460DEBE2
:101790000200FFF70BFE1B4B07944FF02042CDE9F0
:1017A0000E2306220323CDE908230222032120234E
:1017B000109206AA069113930EA84FF48053114677
:1017C000CDE90A440C94189301F0DCFC40B90E4BAF
:1017D00040F614721A601B680C4A136022B010BDE8
:1017E0000B4840F22111FFF74BFFF0E700380240B1
:1017F000000C02400010024000180240001C024091
:1018000000200240040100A0E40900200010006450
:101810007CC40008074B1A6831B922EA000018603E
:10182000054A1B681360704710431860024A1B6822
:1018300013607047E409002000100064034B1B682C
:10184000034214BF01200020704700BFE4090020BC
:1018500007283DD82E4B2F4A1B69116903F480736A
:10186000002B0BBF0022FF220123002389042A49F9
:1018700009695CBF01330122C9062FD527490969CF
:10188000490702D40133DBB203222549096949051E
:1018900002D40133DBB2042220490969090702D4CA
:1018A0000133DBB205221D490969090602D401335F
:1018B000DBB2062216490969090502D40133DBB2FD
:1018C0000722012B08D1801AB0FA80F04009704736
:1018D000082807D0092810D0002070470133DBB258
:1018E0000222CBE70A4B1B69DA05F5D4094B1869CC
:1018F00080F40050C0F340307047064B1B699B04D6
:10190000EAD4054B186980F01000C0F3001070474E
:101910000020024000080240001C02400018024063
:101920000014024030B53F4B3F4C404902208BB081
:101930001871187583F8240083F8340083F8440084
:1019400083F8540083F8640083F8740083F88400FB
:1019500083F89400364898630022986498659866E6
:101960006420628122731A731A7783F82C2083F81B
:101970007C2083F88C2083F89C2083F83C2083F81B
:101980004C2083F85C2083F86C2098609861986202
:101990009867C3F88800C3F8980000920B6B254C39
:1019A00043F004030B630B6B03F004030093009BF1
:1019B00001920B6B43F020030B630B6B03F02003CE
:1019C0000193019B02920B6B43F040030B630B6B83
:1019D00003F040030293029B03920B6B43F08003DE
:1019E0000B630B6B03F080030393039B04920B6B5D
:1019F00043F480730B630B6B069203F4807303252F
:101A00000493049BCDE9072504F14005A38854F80D
:101A1000080B059305A900F0C1FFAC42F6D10BB04D
:101A200030BD00BFE8090020880A002000380240CD
:101A300064000006D0C40008074B9A7AD97A914214
:101A400008D0511CC9B20929985C92BF9972002232
:101A50009A72704700207047880A00202DE9F843E9
:101A600001263F4DDFF8FC90344600274FF0050873
:101A70000BE0042B17D885F804800134E4B2F31C82
:101A80000B2C05F11005DEB251D0601EC0B2FFF77D
:101A9000DFFE2B790028ECD1052B09D985F80480CD
:101AA000EF802F73E9E7092B06D801332B71E4E7A8
:101AB0005BB3013B2B71F3E7AA7A72B999F80B304B
:101AC00009F803600133DBB2092B4FF00101A97261
:101AD00094BF89F80B3089F80B202B89002BCCD0D0
:101AE000EA88934225D9013292B29342EA80C4D166
:101AF00099F80B3004EB440209F803200133DBB200
:101B0000092B29D989F80B70B7E7AA7A012AC7D11E
:101B100099F80B20AB72711C09F802100132D2B295
:101B2000092A94BF89F80B2089F80B30B8E7BDE883
:101B3000F883EA7A002AA0D02B7B0133DBB29A42E9
:101B400001D92B7399E799F80B302F7309F80360CB
:101B50000133DBB2092BD5D889F80B308DE700BFF4
:101B6000E8090020880A002008B501214FF48070A0
:101B7000FFF750FE01214FF40070FFF74BFE0121EB
:101B80004FF48060FFF746FEBDE8084001214FF4A6
:101B90000060FFF73FBE00BF012810B51ED002282D
:101BA0000FD003281DD004281ED14FF40064204616
:101BB000FFF744FE60B920460121BDE81040FFF761
:101BC00029BE4FF400742046FFF738FE0028F2D0FB
:101BD00020460021BDE81040FFF71CBE4FF4807482
:101BE000F1E74FF48064EEE710BD00BF08B52F4B5E
:101BF0001A6822B11A68013A1A60002A4BD02C4B9D
:101C00005A6852B15A68013A5A6032B901225A7080
:101C10001A78012A04BF9A685A601A6952B11A697F
:101C2000013A1A6132B901225A731A7B012A04BFA0
:101C30005A691A61DA6952B1DA69013ADA6132B97C
:101C400001225A761A7E012A04BF1A6ADA619A6A58
:101C500062B19A6A013A9A6242B9012283F8252058
:101C600093F82420012A04BFDA6A9A62114B1A6899
:101C700001321A601A686FF000418A4204BF0022E4
:101C80001A60FFF703FD0C4A13780133DBB2092B0E
:101C900005D8137008BD094B01221A70AFE7002365
:101CA0001370BDE80840FFF7EFBC00BFE80A002052
:101CB000B40A0020980A0020B00A0020E40A00209C
:101CC00010B592B03822002104A8FFF76FFB1A4A22
:101CD0001A4900230193136C43F0010313640B684A
:101CE0001749126CA1FB0313DB0C013B02F001024C
:101CF0004FF080409BB20192CDE902034FF0FF31DB
:101D0000802202A8019C0591089201F069FA60B94D
:101D1000022200211C2000F0F5FD1C2000F030FE06
:101D200002A801F0D9FA12B010BD064840F22521F0
:101D3000FFF7A6FCECE700BF0038024034040020A7
:101D400083DE1B4310C500080C4B0D4900225A606E
:101D500001209A605A701A701A615A615A731A7384
:101D6000DA611A625A761A769A62DA6283F8252064
:101D700083F824200870FFF7A3BF00BFB40A002037
:101D80009C0A00204FF0804310B51A69D968920769
:101D900001D58C0737D44FF080431A69D9685007B2
:101DA00001D5490725D44FF080431A69D968120735
:101DB00001D50C0713D44FF080431A69D968D006B7
:101DC0000CD5CA060AD54FF6EF711961DA681348C7
:101DD0000A40DA60BDE810400368184710BD4FF6AE
:101DE000F7711961DA680E480A40DA6003689847AB
:101DF000E1E74FF6FB711961DA680A480A40DA60D8
:101E000003689847CFE74FF6FD711961DA68064815
:101E10000A40DA6003689847BDE700BFAC0A0020BB
:101E2000A80A0020A40A0020A00A002000B54FF054
:101E3000010E83B08EF31088838A9BB24FF0000CA2
:101E4000ADF806308CF31088BDF8063082899BB25D
:101E500093420ED21BE08EF31088838A9BB2ADF8BA
:101E600006308CF31088BDF8063082899BB29A4206
:101E70000DD8BDF806309BB29342ECD10368DA6806
:101E80001206E8D4DA6842F08002DA60E3E7038AF7
:101E9000426809789BB2D154012383F31088038AE6
:101EA000828901339BB29A4203829CBF0023038242
:101EB000838A01339BB20022838282F310880268F6
:101EC000D36843F08003D36003B05DF804FB00BF28
:101ED00070B5864B864A8749874810609CB00024BD
:101EE0001C8283F828405C8282F82840DC821C83B4
:101EF0005C839C8214825482D4821483548394829F
:101F00000094086B7D4D1D6040F00100C3E907445B
:101F1000C2E907445C625462794E0863086B5E60F4
:101F2000784E9E60784E5660784E9660784ED660B9
:101F300000F001004FF00422DA600090009B019451
:101F40000B6B744843F001030B630B6B03F001034D
:101F50000193019B02944B6C43F010034B644B6C58
:101F600003F0100302934FF400720223CDE906231D
:101F700007260122029B0A96032306A9CDE908231E
:101F800000F00CFD4FF480636248069306A90A96A0
:101F900000F004FD01222146252000F0B3FC25209D
:101FA00000F0EEFC4FF4E133CDE90C530CA80C2308
:101FB000CDE90E44CDE911341094139401F000FBE7
:101FC000002840F086804D4A4A4B1168514821F064
:101FD00040011160116821F020011160D1680024D6
:101FE00041F02001D16003941A6B42F001021A63A0
:101FF0001A6B02F001020392039A04941A6B42F0E6
:1020000001021A631A6B02F001020492049A059409
:102010001A6C42F400321A641B6C03F4003305930B
:1020200004220223CDE9062307250122032306A962
:10203000CDE908230A95059B00F0B0FC082335483C
:10204000069306A90A9500F0A9FC02222146262043
:1020500000F058FC262000F093FC274910944FF420
:10206000165204230CA8CDE90C12CDE90E44CDE99B
:102070001134139401F0A4FA002830D11F4B1E4CE8
:1020800019681C4A21F040011960186820F02000EE
:102090001860E368002043F02003E3600690136BB0
:1020A00043F002031363136B00F1804003F002035B
:1020B000069300220CA904240125032300F5013016
:1020C000CDE90E23CDE90C45069B00F067FC1CB062
:1020D00070BD11484FF44971FFF7D2FA73E70E480B
:1020E0004FF44971FFF7CCFAC8E700BFF81A002097
:1020F000241B002000380240004400400010014032
:10210000EC160020EC0A0020EC1A0020EC0E002057
:102110000A0000080000024084C5000870B5384C71
:1021200023681D68DE685A69AA0619D55868E38ACB
:10213000A2689BB2C0B2D054E38AE28901339BB259
:102140009342E38224BF0023E382638B9BB29A42D3
:1021500003D9638B01339BB26383636A03B19847EE
:10216000280601D5310613D46A0610D573060ED59C
:10217000A38A9BB2002B2FD12268216AD36823F057
:102180004003D36001B18847002384F8283070BD34
:10219000A38A9BB24BB92368DA6822F08002DA6026
:1021A000DA6842F04002DA60DEE7638A012284F8EE
:1021B00028209BB26268D15C2368A2895960638A37
:1021C00001339BB29A4263829CBF00236382A38A3D
:1021D000013B9BB2A382C7E7638A616822689BB216
:1021E000CB5C5360638AA28901339BB29A426382BB
:1021F0009CBF00236382A38A013B9BB2A38270BD74
:10220000F81A002070B5384C23681D68DE685A69DA
:10221000AA0619D55868E38AA2689BB2C0B2D05406
:10222000E38AE28901339BB29342E38224BF002315
:10223000E382638B9BB29A4203D9638B01339BB2D7
:102240006383636A03B19847280601D5310613D426
:102250006A0610D573060ED5A38A9BB2002B2FD128
:102260002268216AD36823F04003D36001B1884714
:10227000002384F8283070BDA38A9BB24BB9236831
:10228000DA6822F08002DA60DA6842F04002DA604E
:10229000DEE7638A012284F828209BB26268D15C61
:1022A0002368A2895960638A01339BB29A42638290
:1022B0009CBF00236382A38A013B9BB2A382C7E732
:1022C000638A616822689BB2CB5C5360638AA2898F
:1022D00001339BB29A4263829CBF00236382A38A2C
:1022E000013B9BB2A38270BD241B0020002A14DD99
:1022F00070B54C1E094D82B0A618EB6914F8012F79
:102300008DF8072003B198470DF107012846FFF724
:102310008DFDB442F1D102B070BD7047F81A0020B3
:10232000002070470D4B1B68B3B10D4B1B689B0B16
:102330000DD000BF00BF00BF00BF00BF00BF00BF87
:1023400000BF00BF00BF00BF00BF013BF1D1054B84
:10235000186801301860704701F0EEBF38040020A3
:1023600034040020501B0020704700BFFEE700BF70
:10237000FEE700BFFEE700BF704700BF044AEFF36F
:10238000108172B613680133136081F31088F6E789
:10239000D867002080B51B4C23782BB9C82001F0EA
:1023A000EBFD2378002BF9D0174D184B2A68184EF7
:1023B000A3FB02135B09632A2B6001D80022326061
:1023C000144C9FED158ADFF85480642203FB02F25F
:1023D000226000272268C8F8002007EE903A07EE36
:1023E000102AF8EE677AF8EE476A642086EEA77A3C
:1023F000276078EE477AC6ED007A01F0BDFD2B68C4
:10240000E8E700BFE4670020DC6700201F85EB5190
:10241000D4670020D86700200000C842E067002091
:102420000FB410B5B4B036AB0C4C53F8042B00937A
:10243000C92101A804F060F84FF0FF31204602F0F6
:102440003BF901A9064802F039FA204602F068F982
:1024500034B0BDE8104004B0704700BF541B0020EA
:10246000DCC500082DE9F04FDFF884A01D4E1E4F9B
:10247000DFF88090DFF8808083B002E0142001F064
:102480007BFDFFF7D9FA0128F8D13846FFF7C8FFDE
:10249000DAF80000134CDFF864B0FEF739F90246B1
:1024A0000B464846FFF7BCFF3846FFF7B9FF4046EA
:1024B000FFF7B6FF0D48FFF7B3FFA06A2569A368D1
:1024C0006269E16A0190D4F8A800EB1A2D1A009510
:1024D0005846FFF7A5FFD4F88840B442CED0002C70
:1024E000EBD1CBE7B0510020E0C500087CC6000866
:1024F000D467002024C6000840C60008B8C60008FB
:1025000080B5284E284F88B000240220347001F096
:1025100033FD64203C6001F02FFD244B3A681A60C3
:102520000125357000F0CCF94FF48056FFF798F88C
:102530000323B427CDE90334CDE901631C4B1D4AC5
:102540001D490093CDE9055723461C4802F004F9C4
:102550000423CDE903340293194B1A4A1A491B4844
:10256000CDE90036CDE90557234602F0F5F80521FF
:102570001748184A0090CDE90314CDE901612346BC
:1025800015491648CDE9055702F0E6F814491548F3
:102590003423224602F028F8FFF728FB012001F03F
:1025A000EBFCF9E7E4670020D8670020DC67002037
:1025B000F8300020F9260008E8C60008F84000209E
:1025C0002057002065240008F4C60008206700207A
:1025D000881B00203126000804C70008882B002033
:1025E00014C70008541B00200FB410B50C4C0D4A42
:1025F000B4B037ABC92101A8009303F07DFF4FF0C1
:10260000FF31204602F058F801A9074802F056F9B8
:10261000204602F085F834B0BDE8104004B07047A1
:10262000541B002024C70008DCC50008000000007F
:102630002DE9F04F17A7D7E9006718A5D5E90045A0
:102640000FF26009D9E900890FF2600BDBE900ABFA
:1026500083B042464B4620462946FDF7FBFE5246D4
:1026600004460D465B4630463946FDF7F1FE0F46FF
:10267000064622462B46CDE900670548FFF7B4FF22
:102680000220FFF789FA4FF4FA7001F075FCE0E7D9
:1026900024C70008C74B378941E001409A999999AE
:1026A0009999F13F956479E17FFDA53D956479E1C4
:1026B0007FFDB53D0FB410B50C4C0D4AB4B037AB2F
:1026C000C92101A8009303F017FF4FF0FF31204606
:1026D00001F0F2FF01A9074802F0F0F8204602F0ED
:1026E0001FF834B0BDE8104004B07047541B002000
:1026F0004CC70008DCC500082DE9F04F17A7D7E943
:10270000006718A5D5E900450FF26009D9E90089ED
:102710000FF2600BDBE900AB83B042464B4620462C
:102720002946FDF797FE524604460D465B46304665
:102730003946FDF78DFE06460F46CDE9006706488F
:1027400022462B46FFF7B6FF4FF4FA7001F014FC57
:10275000E3E700BFAFF300804CC70008C74B3789E1
:1027600041E001409A9999999999F13F956479E1ED
:102770007FFDA53D956479E17FFDB53D08B5FEF788
:1027800007FF00F095F801F00BF8FEE7F0B589B00F
:102790000024B42601250223184900914FF48052E9
:1027A000CDE90123CDE90556CDE90334144A154995
:1027B0001548234601F0D0FF1E23CDE903340293D0
:1027C000124B134A134914484FF48067CDE905565C
:1027D000CDE90037234601F0BFFFCDE905561F23A1
:1027E0000E4D0F4A0F490095CDE90334CDE9017331
:1027F0000D48234601F0B0FF09B0F0BDB041002004
:102800000125000874C70008B0510020685200205C
:102810009523000884C7000868560020402C00203B
:102820007D23000894C70008403000201049114B58
:10283000D1F8882042F4700210B4C1F888201A68D8
:102840000D4C002042F001021A6098601A6822F0D4
:10285000847222F480321A605C601A684FF000645F
:1028600022F480221A60D8608C605DF8044B7047B7
:1028700000ED00E0003802401030002408B50B4B9A
:102880001A6842F400721A601A6842F480621A6090
:102890001A6842F480721A60032000F021F80F20B9
:1028A000FFF73EFD00F0C4F9002008BD003C0240E7
:1028B0004FF0E022136923F002031361704700BF59
:1028C0004FF0E022136943F002031361704700BF29
:1028D000024B0122C3F80024704700BF00002742CA
:1028E0000749CA6803024FF6FF0003F4E0630240A1
:1028F000134343F0BF6343F40033CB60704700BF22
:1029000000ED00E01C4BDB68C3F3022300B5C3F10C
:10291000070EBEF1040F03F1040C28BF4FF0040EA4
:10292000BCF1060F1BD9033B4FF0FF3C0CFA03FC34
:1029300022EA0C024FF0FF3C0CFA0EFC21EA0C01DB
:102940009940002841EA02010CDB00F160400901D6
:1029500000F56140C9B280F800135DF804FB002265
:102960001346E7E7054B00F00F0009010344C9B225
:1029700019765DF804FB00BF00ED00E0FCEC00E020
:10298000002808DB044A4109012300F01F0003FA74
:1029900000F042F82100704700E100E02DE9F04F1F
:1029A00000230D68DFF8788283B003E00133102B39
:1029B00000F0AE8001229A4032EA050402EA050CDA
:1029C000F4D14E6826F01009B9F1020F00F0A3808F
:1029D000D0F800B04FEA430E032404FA0EF406F0D8
:1029E000030A2BEA040B09F1FF390AFA0EFA4AEA44
:1029F0000B0AB9F1010F6FEA0404C0F800A040F21D
:102A0000B380C26814408A6802FA0EF22243F700CB
:102A1000C260CBD500220192D8F84420794F42F40D
:102A20008042C8F84420D8F8442002F48042019241
:102A3000019A23F0030202F1804202F59C3203F076
:102A40000309D2F808E04FEA89090F2404FA09F4CF
:102A5000B8422EEA04042ED007F58067B84200F091
:102A60009980694FB84200F09C80684FB84200F0EE
:102A70009F80674FB84200F0A280664FB84200F0D6
:102A8000AC80654FB84200F0AF80DFF898E1704548
:102A900000F09C80DFF890E1704500F0AC80DFF83A
:102AA0008CE170450CBF4FF0090E4FF00A0E0EFA84
:102AB00009F944EA09049460584A12686FEA0C0E56
:102AC000F403564C54BF0EEA02024CEA02022260A2
:102AD0006468B203514A54BF0EEA04044CEA040489
:102AE000546094684D4AF70254BF0EEA04044CEA5D
:102AF00004049460D268B40203F10103474C54BF4C
:102B00000EEA02024CEA0202102BE2607FF452AF9E
:102B100003B0BDE8F08F4FEAD30E00EB8E0E0C69C8
:102B2000DEF820A003F007094FEA89094FF00F0BE8
:102B300004FA09F40BFA09F92AEA090944EA090432
:102B4000CEF82040D0F800A04FEA430E032404FA48
:102B50000EF406F003092AEA040A09FA0EF949EA12
:102B60000A09E443C0F80090D0F808A0CF6804EA4E
:102B70000A0A07FA0EF949EA0A09C0F80890D0F8DB
:102B8000049029EA0209C6F300129A4042EA0902B7
:102B9000426036E74FF0010E0EFA09F944EA0904E3
:102BA00089E74FF0020E0EFA09F944EA090482E7B8
:102BB0004FF0030E0EFA09F944EA09047BE74FF0DF
:102BC000040E0EFA09F944EA090474E74FF0070EFF
:102BD0000EFA09F944EA09046DE74FF0050E0EFA02
:102BE00009F944EA090466E74FF0060E0EFA09F9FE
:102BF00044EA09045FE74FF0080E0EFA09F944EAC7
:102C0000090458E70000024000080240000C02409E
:102C1000001002400014024000180240003C014035
:102C200000380240001C0240002002400024024004
:102C3000704700BF002800F068812DE9F04103686B
:102C4000DD0782B004462FD59E498A6802F00C0247
:102C5000042A00F0ED808A6802F00C02082A00F0D5
:102C6000E3806368B3F5803F00F0EC80B3F5A02FFC
:102C700000F04D81934D2A6822F480322A602A6840
:102C800022F480222A60002B40F0E180FFF74AFB0B
:102C9000064605E0FFF746FB801B642800F2018131
:102CA0002B689B03F6D423689F0728D5854A916833
:102CB00011F00C0F00F09A80916801F00C010829C6
:102CC00000F09080E368002B00F00E817E4B7D4E7B
:102CD00001221A60FFF726FB054605E0FFF722FBFD
:102CE000401B022800F2DD8033689807F6D5336870
:102CF000226923F0F80343EAC203336023681A070A
:102D00005BD458073AD56F4A136C13F0805340F0E8
:102D100089800193136C43F080531364136C03F0A8
:102D200080530193019B0125684E3368D90540F11A
:102D3000A880A368012B00F0B880052B00F0238148
:102D4000604E326F22F001023267326F22F00402CD
:102D50003267002B40F0AE80FFF7E4FA41F288388A
:102D6000074605E0FFF7DEFAC01B404500F29980F8
:102D7000336F9807F6D4002D40F0D380A369C3B118
:102D8000504DAA6802F00C02082A36D0022B4E4B96
:102D90004FF000021A6600F0CA80FFF7C3FA04463B
:102DA00004E0FFF7BFFA001B02287AD82B689B01CA
:102DB000F7D4002002B0BDE8F08163690BB3424B49
:102DC000404E0122C3F8802EFFF7ACFA054604E01E
:102DD000FFF7A8FA401B022863D8736F9B07F7D54B
:102DE00023688EE7526856023FF56CAF354A126889
:102DF00095073AD5E268012A37D0012002B0BDE834
:102E0000F081314A2F4EC2F8803EFFF78BFA05461B
:102E100004E0FFF787FA401B022842D8736F9F0730
:102E2000F7D4DDE700257FE74A6850027FF519AF48
:102E3000244A126891037FF537AF6268002A7FF455
:102E400033AFDAE71F4A136843F480331360FFF7A8
:102E500069FA1C4E054604E0FFF764FA401B64283B
:102E60001FD833689A03F7D51DE7164920690A6809
:102E700022F0F80242EAC0020A601A077FF541AF69
:102E80009BE7336843F480733360FFF74BFA0746E0
:102E90003368DA053FF54DAFFFF744FAC01B02284F
:102EA000F6D9032002B0BDE8F081064A136F43F063
:102EB00001031367FFF736FA024F064641F28838DE
:102EC0000BE000BF003802400000474200700040A5
:102ED000FFF728FA801B4045E3D83B6F9B07F7D5E7
:102EE000002D3FF44BAF1CE02C4A2D4E1360FFF732
:102EF00019FA054604E0FFF715FA401B0228D0D85E
:102F000033689907F7D42368F9E601207047244B0A
:102F10001A6842F480221A601A6842F480321A60F9
:102F200095E71F4A136C23F08053136426E7FFF7DD
:102F3000F9F9064604E0FFF7F5F9801B0228B0D83E
:102F40002B689901F7D4D4E90731626A0B4343EA4D
:102F50008213D4E90A21520843EA0163013A0F4976
:102F600043EA024301226B600A66FFF7DBF90C4D6E
:102F7000044604E0FFF7D6F9001B022891D82B681D
:102F80009A01F7D515E7064B1A6F42F004021A674B
:102F90001A6F42F001021A678CE700BF0000474237
:102FA00000380240164908B58B6803F00C03042B67
:102FB0001BD0082B17D14A684B68496813F480036B
:102FC00002F03F0213D10F48C1F38811A1FB0001A9
:102FD000FDF7F6FB0A4B5B68C3F3014301335B006B
:102FE000B0FBF3F008BD074808BD074808BD064818
:102FF000C1F388110023A1FB0001FDF7E1FBE9E724
:10300000003802400024F40000127A00002800F08A
:103010008680474A136803F00F038B422DE9F04185
:103020000D46044609D2CBB21370136803F00F03A8
:103030008B4202D00120BDE8F0812368980714D5A7
:10304000590704D53B498A6842F4E0528A601A075E
:1030500004D538498A6842F460428A603549A068DC
:103060008A6822F0F00202438A60DF0721D5626895
:10307000012A56D0931E012B2E4B1B684CD9990761
:10308000D8D52C4EB36823F003031343B360FFF786
:1030900049F941F28838074604E0FFF743F9C01BBD
:1030A000404543D8B368626803F00C03B3EB820F6A
:1030B000F3D11F4A136803F00F03AB4206D9EBB2FA
:1030C0001370136803F00F03AB42B3D123685A07A0
:1030D00006D51849E0688A6822F4E05202438A6003
:1030E0001B0707D5134A2169936823F4604343EA19
:1030F000C1039360FFF756FF0E4A0F4C92680F49C9
:10310000C2F303120346A25C0F20D3400B60FFF70B
:1031100007F90020BDE8F0819801B2D48AE70120C8
:103120007047044B1B689E03ABD483E7032082E700
:10313000003C024000380240A4C7000834040020CC
:10314000044B05499B68054A0868C3F38223D35C96
:10315000D84070470038024034040020B4C700084B
:10316000044B05499B68054A0868C3F34233D35CA6
:10317000D84070470038024034040020B4C700082B
:10318000704700BF38B370B590F8493015460E4609
:10319000044603F0FF02CBB1214651F8080B00F0C2
:1031A0003FFAA2682068314600F074FAD4E90102BF
:1031B000236B294600F09AFA2268A16852F8213060
:1031C00043F0010342F82130002070BD80F8482010
:1031D000FFF7D6FFE0E70120704700BF704700BF50
:1031E000002874D010B590F83D30044603F0FF027B
:1031F000002B67D022683749022384F83D308A4289
:1032000013684BD0B2F1804F31D0A1F57C418A4296
:103210002DD001F580618A4229D001F580618A4272
:1032200025D001F578418A4238D001F570518A42A3
:1032300021D001F580618A421DD001F580618A426A
:1032400019D0A1F598318A4215D001F580618A42E2
:1032500011D001F580618A420DD0A069E16823F0A8
:103260008003034313606368D162936210E0A16836
:1032700023F070030B432069A16923F440730343D7
:1032800023F08003E0680B4361681360D0629162B1
:103290000123536184F83D30002010BDA0682169EE
:1032A00023F07003034323F440730B43A16923F01D
:1032B00080030B431360E368D362636893626369BE
:1032C0001363E5E780F83C20FFF788FF92E70120D1
:1032D000704700BF000001400223026880F83D30C3
:1032E000936803F00703062B03D0136843F0010330
:1032F0001360012380F83D30002070470268116997
:103300002DE9F8430446C068A368256921F44051BB
:1033100001431161D168E0692B43656921F41641CD
:103320002B4321F00C0103430B43D3605369A16984
:1033300023F440730B43B0F5004F53619D4B00F0F5
:103340009C809A425AD003F580639A4256D0FFF788
:10335000F7FEDFF86482636800EB800000EB80001A
:103360009B00B0FBF3F3A8FB03235B091F01FFF7EE
:10337000E7FE656800EB800000EB8000AD00B0FB6D
:10338000F5F5FFF7DDFE636800EB80009B0000EBC6
:103390008000B0FBF3F0A8FB003040094FF0640957
:1033A00009FB10531B013233A8FB03235B0903F015
:1033B000F006FFF7C5FE656800EB800303EB8303AF
:1033C000AD00B3FBF5F5FFF7BBFED4E9002300EB3E
:1033D000800000EB80009B00B0FBF3F3A8FB03131D
:1033E0005B0909FB13531B013233A8FB0313C3F31F
:1033F000431333433B449360BDE8F883FFF7B0FECB
:10340000DFF8B481636800EB800000EB80009B0074
:10341000B0FBF3F3A8FB03235B091F01FFF7A0FE3A
:10342000656800EB800000EB8000AD00B0FBF5F5B7
:10343000FFF796FE636800EB80009B0000EB8000C6
:10344000B0FBF3F0A8FB003040094FF0640909FB22
:1034500010531B013233A8FB03235B0903F0F00672
:10346000FFF77EFE656800EB800000EB8000AD009A
:10347000B0FBF5F5FFF774FEA7E79A425AD003F5C3
:1034800080639A4256D0FFF75BFEDFF82C816368B9
:1034900000EB800000EB80005B00B0FBF3F3A8FBC7
:1034A00003235B091F01FFF74BFE656800EB8000FB
:1034B00000EB80006D00B0FBF5F5FFF741FE63689F
:1034C00000EB800000EB80005B00B0FBF3F3A8FB97
:1034D00003235B094FF0640909FB1353DB0032330C
:1034E000A8FB03231B0903F4F876FFF729FE6568A0
:1034F00000EB800303EB83036D00B3FBF5F5FFF7EF
:103500001FFED4E9002300EB800000EB80005B008D
:10351000B0FBF3F3A8FB03135B0909FB1353DB00B8
:103520003233A8FB0313C3F342133B443344936089
:10353000BDE8F883FFF714FEDFF87C80636800EBDA
:10354000800000EB80005B00B0FBF3F3A8FB0323DB
:103550005B091F01FFF704FE656800EB800000EBCC
:1035600080006D00B0FBF5F5FFF7FAFD636800EB36
:10357000800000EB80005B00B0FBF3F3A8FB0323AB
:103580004FF064095B0909FB1353DB003233A8FBDE
:1035900003231B0903F4F876FFF7E2FD636800EBF1
:1035A00080005B0000EB8000B0FBF3F5FFF7D8FD77
:1035B000A7E700BF001001401F85EB51704700BF17
:1035C00060B338B590F83930044603F0FF0203B316
:1035D0002268242384F83930D36823F4005320462A
:1035E000D360FFF78BFE23681A6922F490421A61B8
:1035F0005A6922F02A025A61DA680025202142F431
:103600000052DA60E56384F8391084F83A102846ED
:1036100038BD80F83820FFF7D1FFD9E70120704787
:1036200070B40C688D6850F824304A68184E1E40FB
:1036300045EA0203CA6813430A6913434A691343FC
:103640008A691343CA6913430A6A13434A6A1343D4
:103650008A6A1343CA6A1343CA6B13430A6B134340
:103660004A6B13433343082D08BF43F04003B2F5C0
:10367000801F40F8243002D0002070BC7047002C1E
:10368000FAD0036843F48013036070BC00207047D5
:103690008000E0FF0B6900EB820203F1FF3C5368FE
:1036A00010B58C6903F0404E0B6823434C6843EA25
:1036B00004138C6843EA0423CC68496943EA044351
:1036C00043EA0C53023943EA016343EA0E035360B1
:1036D0000368DB0207D543684FEA0C5C23F47003F0
:1036E0004CEA03034360002010BD00BFB3F5804FD8
:1036F00005D06FF0704340F822300020704730B49E
:1037000050F82230094C8D691C400B682B434D68E2
:1037100043EA05138D68C96843EA052343EA014378
:10372000234340F8223030BC002070470000F0CF27
:1037300038B500F0B7FB00F019FE0D480D490E4AF0
:103740000E4C0F4D002303600B6013600D480E49B3
:103750000E4A236003600B6013600D4C0D480E4948
:103760000E4A2B60236003600B60136038BD00BFFE
:1037700014680020106800200C680020FC670020FE
:1037800018680020F8670020EC670020E867002038
:10379000F4670020F067002008680020046800201B
:1037A00010B50E4C236813F10F3F0AD04FF0F033E1
:1037B0002360FCF725FDFFF7BBFF094A13680133BF
:1037C0001360084A4FF0F03310682360FEF7DEFF05
:1037D00000232360BDE81040FCF762BD38040020E0
:1037E000386800200068002010B5EFF3108372B62F
:1037F0001A4A846E944202D083F3108810BDD0F828
:10380000B0208A42F8D1C26E002AF5D0144914685B
:103810008C42F1D1D1690029EED0002401398466AF
:10382000D161C1B1D0E91C144C672167946984420D
:1038300011D0026B0D2ADFD10A490A681D2401321A
:10384000C0F884400A6083F3108800F0E9FBEFF3CE
:10385000108372B6D0E79161EBE700BFE93700084B
:103860004554554D3868002070B50446EFF3108379
:1038700072B60D4ED0F8A4003268013232600125D4
:1038800058B1856083F3108800F070F9EFF310836E
:1038900072B6D4F8A4000028F2D13268013A32603E
:1038A00083F3108870BD00BF3868002070B50446EF
:1038B0000E46154600213422FDF778FD666025612D
:1038C000EFF3108172B60C4B0C480D4A20600D4886
:1038D000186013680C4843B92462046064620133C1
:1038E000136081F31088002070BD0068456A44624F
:1038F0002C62C4E90805F2E7346800204554554DB0
:10390000046800206938000808680020F8B5EFF363
:10391000108C72B63A4A83681468E3B90122C0E990
:103920000224A4B10269012A03D1E26A4261202281
:103930008262D4F8A420002A43D0116B1063C862BD
:10394000C0E90B21D4F8A0200132C4F8A0208CF3E8
:1039500010881846F8BDC268A2422BD029B3294D61
:103960002B6813BBD4F8B030274EE0660133C4F89F
:10397000B030C369A6664BBB8461C4E91C44013303
:10398000C3612B68E16401332B600D2323630123A2
:10399000A3638CF310880369012B1ED0204600F02E
:1039A000C3FBD4F884301846F8BD8CF310881D236F
:1039B0001846F8BD013383608CF310880023184645
:1039C000F8BDC4F8A400C0E90B00BBE78669266710
:1039D000776F67673C677467D1E7E16A836A8B42F8
:1039E000D2F89C3088BF81629942D36A38BFC2F84E
:1039F0009C109942D2D2104600F054F8CEE700BF96
:103A00002868002038680020E9370008F8B5EFF38F
:103A1000108C72B6C569012D26D98369022D1A6FE3
:103A20001DD01F4F3C68013419463C6005E0C56954
:103A3000226F214623468A421AD0D66ADC6AA64201
:103A400038BF13468CF31088EFF3108C72B684697C
:103A50008C42ECD1C669AE4220D03546E8E7DB6A3D
:103A6000D16A994238BF82618CF310880020F8BD7A
:103A70003968934201F1FF31396009D0D3E91C4123
:103A800061670C67516FC3E91C210B675367836142
:103A90008CF3108800F0A6FA0020F8BD126FCAE778
:103AA000386800202DE9F84304460D46EFF31082F4
:103AB00072B6036B53B1D0F89810C562A94228BF03
:103AC0002946C16382F31088BDE8F8832349C364A3
:103AD0000B68234ED0F82C80376802330B604FF010
:103AE000010903230363C0F8389082F3108800F0C3
:103AF0001BFBEFF3108272B6D4F89830E562AB424C
:103B000028BF2B46E36382F31088204600F088FA32
:103B1000EFF3108172B633689C4207D0226B2AB94A
:103B2000DA6AE36A934205D8BC4210D081F3108868
:103B3000BDE8F883E06B8342F8D9824207D2094896
:103B4000036809FA02F943EA09030360EEE7A845AE
:103B50003460EBD2044A42F82340E7E7386800209B
:103B60002C6800203C680020406800202DE9F843C4
:103B70000446EFF3108372B685688DB17B49E26825
:103B800009688A42184602D0794E316841B1013D38
:103B9000A5605DB183F3108800252846BDE8F88351
:103BA00083F310881E252846BDE8F883002A43D0F9
:103BB000D2F8A0100139C2F8A01000293FD1C2F8F4
:103BC000A450A169002960D02169D2F89480684E80
:103BD000012900F09180E369012B49D92269012A6A
:103BE00038D0A769002F58D04FF00009D7F8A0208F
:103BF000002A77D1C7F8A440C4E90B440132C7F8C2
:103C0000A020013B0122E760E361A260002B63D1A9
:103C1000A3613368013333600023BB66C7F8843087
:103C200080F310882369012B00F08780384600F06C
:103C3000F7F92846BDE8F88383F31088B3E7D4E9A1
:103C40000B160E63F162D2F8A460A64208BFC2F858
:103C5000A410B6E733680133336080F31088204640
:103C6000FFF7D4FEEFF3108072B63368013B336088
:103C7000A76997B12369012B2AD1FB6A63612023CD
:103C8000A362D4F80C90E369B0E7216900299CD1C4
:103C9000E16083F310880D4685E7336801333360B4
:103CA00080F31088E0682023A362C36A434502D0F2
:103CB0004146FFF7F7FEEFF3108272B63368013B1F
:103CC00033600023E36082F3108800F08BF96AE729
:103CD000E3694FF0000989E73B6F7A6FA3615A6788
:103CE000136796E7D7F8A410D1F830C00C63CCF86E
:103CF0002C40C4E90B1C81E731680131316083F34A
:103D00001088D2F8A41020270B464BB1186901285F
:103D100003D1986A874228BF0746DB6A9942F4D1EB
:103D2000EFF3108072B63368C2F89C70B84503F1A7
:103D3000FF3328BFB84633604DE7E3694BB9D9F884
:103D40002C3043453FF472AF41464846FFF7AAFE88
:103D50006CE72046FFF75AFEEFF3108272B6A369B4
:103D60000BB1DB6AA36282F31088E8E728680020C1
:103D7000386800202DE9F84F0A9D0B9EDDF830A031
:103D8000DDF8389004468B469046EF2132462846AF
:103D90001F46FDF70BFBB42200212046FDF706FB72
:103DA00020236661C4F89C30013E364B0D99E560D6
:103DB00003223544E163C4F89810C4E91187C4E9CB
:103DC0000699C4E915343049C4F828B02561C4F80F
:103DD0002CA0C4F894A022632046FCF7B1FAEFF3BC
:103DE000108072B6294A2A4B236013686BBB29499D
:103DF000C4E922440C6001331360274A136801337D
:103E000013600F9B012B2BD1EFF30582234B1B6813
:103E10001343B3F1F03F07D280F31088204600F03F
:103E2000FFF80020BDE8F88F1D4B1D683DB3EB6A1D
:103E3000EE6BEB6380F31088204600F0F1F8002D64
:103E4000EFD0EE630020BDE8F88F12490968D1F881
:103E50008C50C1F88C40C5F88840C4E92215CAE7E7
:103E600080F31088EFF3108172B61368013B136082
:103E700081F3108800F0B6F80020BDE8F88F2E46D8
:103E8000D8E700BF09430008113F00082068002060
:103E90004452485424680020386800203804002028
:103EA0002C6800200F4B10491048114A10B500240F
:103EB0001C60104B0C6020211960046014602146C6
:103EC00080220D48FDF772FA0C490D4A0C600D492D
:103ED00013680C600C480D49046043F08073136054
:103EE0000C6010BD2C68002028680020C0680020ED
:103EF0003C680020306800204068002024680020D2
:103F00001C680020386800202068002034680020E9
:103F100038B5164B1C68EFF3108272B6D4F8AC308B
:103F200082F3108813B1002120469847D4E911305C
:103F300098470F4B1B680BB120469847EFF3108052
:103F400072B60C4AD4F8AC500023E3641368012124
:103F50000B442163A163136080F310880DB12046E8
:103F6000A8472046BDE8384000F0DEB828680020A9
:103F7000346800203868002010B5EFF3108272B664
:103F8000144B1C687CB1EFF30583134909680B439C
:103F900009D1124B9C4206D010B982F3108810BD93
:103FA0000F4B196819B182F31088132010BDC4F8A3
:103FB00084101968E0640131196004210123216330
:103FC000A36382F31088204600F0AEF8D4F8840092
:103FD00010BD00BF28680020380400207869002048
:103FE000386800200B4B1B689BB90B4A0B4B1268BF
:103FF0001B689A420DD04FF0E0234FF08052C3F877
:10400000042DEFF3058323B9EFF3108362B683F336
:104010001088704738680020286800202C6800202D
:1040200070B50446EFF3108572B6436E002B3CD09A
:104030004C3000F031FA354AA16B1368013B136034
:10404000236B41BBC3B93249324B1B6885F31088DF
:10405000096899420FD013686BB94FF0E0234FF015
:104060008052C3F8042DEFF3058323B9EFF31083D7
:1040700062B683F3108870BD636B8BB9E06A264922
:10408000236351F82030B3B1596A0C625C626162FB
:1040900023621F49D8E7013B012BD4D9636B33B1AD
:1040A00003230021C4E90C31CDE7C364C3E71849F9
:1040B000A3632363C8E741F820401849184E0B68F2
:1040C0004FF0010C0CFA00FE43EA0E030B6033685C
:1040D0008342C4E90844B6D90D4930600B689BB1EE
:1040E000DE6B8642B0D9DB6A9E4206D00D480CFAE0
:1040F00003FC036843EA0C0303600C6085F310883B
:104100001368002BB7D1A8E70C609DE73868002042
:104110002C6800202868002040680020C06800202B
:10412000306800203C680020F8B5544B04461D68F8
:10413000EFF3108672B6854260D0514A1368013B96
:104140001360A36B012B16D04E4B86F310881B68AF
:10415000AB420FD013686BB94FF0E0234FF08052A1
:10416000C3F8042DEFF3058323B9EFF3108362B690
:1041700083F31088F8BDD4F820E0E06A4FF0000C1B
:104180007445C4F838C053D03F4FD4F824C057F812
:104190002010CEF824C0A142CCF820E03AD0394B10
:1041A0001968A142D1D139483949046857F82440E7
:1041B0001C600C68E4B114680134146086F3108844
:1041C000EFF3108672B614680D68013C146095FA1E
:1041D000A5F4B4FA84FC57F82C700068FC6B844298
:1041E00006D81F60012303FA0CF425EA04050D60CC
:1041F00086F310881368002BBCD1ADE7EB6C013B54
:10420000033303D805F14C0000F01CF9214BE2699F
:104210001A6092E7DFF878C047F820E0DCF8001079
:104220000029BCD0834021EA0303CCF80030B6E774
:10423000194FDFF85CE03968834021EA03013960F7
:10424000114F47F820C0DEF80000DB4310B10340F7
:10425000CEF8003031B191FAA1F1B1FA81F10B4BF6
:1042600019609CE7094B20201860064B196086F303
:1042700010881368002B7FF47DAF6DE7286800205D
:10428000386800202C68002040680020306800203A
:104290003C6800202C6E0020C0680020144B1B6876
:1042A000EFF3108272B613490020086093B1196BC6
:1042B00081B9D3E9071010B40F4C9961984221607D
:1042C00003D0D96ADB6B994207D082F310885DF87E
:1042D000044B704782F310887047084B084C43F832
:1042E00021002068074953F820300B60EDE700BF3C
:1042F00028680020D86800202C6E0020406800202C
:10430000306800202C680020EFF3108C72B6026B2E
:10431000042A07D0826ED0F8B0108CF3108802B156
:1043200010477047034A1368013313608CF31088F9
:10433000FFF776BE38680020EFF3108372B6024AAA
:10434000106883F31088704774690020EFF31081C0
:1043500072B6044A13680133136081F3108802486F
:10436000FFF75EBE38680020786900202DE9F04331
:104370002148224A224B2349234F244E244DDFF863
:10438000BC90DFF8BC800024046014602148224AFD
:104390000C601460214604608022184687B0FDF747
:1043A00005F81E4A1E4910601E4A2C601060034624
:1043B0001D4A3960803313604FF4806220463260BA
:1043C0001A4C02E03968326828680023CDE90012EF
:1043D000CDE90200CDE9043315484B46424621465B
:1043E000FFF7C8FC0028EDD1124A134B106018608B
:1043F00007B0BDE8F08300BF746900202C6E002078
:10440000E0680020D8680020706900206C690020F6
:1044100068690020DC680020D468002064690020FE
:104420002C6A0020D068002060690020BCC700080A
:1044300078690020CC680020C86800204D495441AC
:10444000C54400080268531ED91C01D8816901B116
:104450007047202A0D4A0E491268096894BF9B00D4
:104460007C231344994208D91A685AB151690861EA
:104470005061C0E904218361EAE7064A12685B1AC9
:104480001344F1E7C0E904001860F4E7D0680020A5
:104490006069002064690020836963B10269904209
:1044A0000AD0416951610A611968814204BF936170
:1044B0001A600023836170471A688242F9D1002292
:1044C0001A60F6E7404B984200D070472DE9F04F54
:1044D000DFF80881DFF808A13C4FDFF808B183B0AE
:1044E00001AD0026EFF3108472B6D8F800301868DA
:1044F000009008B1C0F818D0DAF8000043F8046B57
:104500008342C8F8003059D03E6084F31088EFF33E
:10451000108C72B6009CC4B93CE0203B2360A561BE
:1045200024610194CBF800408CF31088EFF31089DC
:1045300072B60198CBF80060A04226D089F31088AB
:10454000EFF3108C72B6009C24B323690196A3424A
:1045500019D06069586100930361C3F818D02368CB
:10456000202BDAD8D4E90123E068226012B124615B
:1045700001942A46A261CBF800408CF31088002BEE
:10458000D4D09847D2E70096E9E7A6612046FFF726
:1045900059FFD3E73B6873B90D4A0E4913680320EE
:1045A000013308630120886313608CF31088084688
:1045B000FFF7BAFD96E78CF3108893E7064B1B686C
:1045C000C8F80030A0E700BF4D495441D46800202E
:1045D000386800207869002064690020D0680020D5
:1045E00060690020DC68002008B1342B01D01C2059
:1045F00070472DE9F0410F4616468046EFF31081D3
:1046000072B6274A13680133136081F31088254B73
:104610001C68254B1D684DB1A04207D0002301E066
:10462000A04503D00133AB42246AF9D1EFF31081E6
:1046300072B61368013B136081F31088FFF7D2FC58
:10464000A04503D0012E04D91F2000E01C20BDE8A6
:10465000F081164A164B12689A4215D0EFF3058185
:10466000144B1A680A4308D0EFF305821B68134302
:10467000B3F1F03F01D21320E9E732463946404614
:10468000BDE8F041FFF712B9EFF30581094B1A6855
:104690000A43F0D0EFF3058213201B68D7E700BF71
:1046A000386800200868002004680020286800207E
:1046B000786900203804002018B1154B02689A422E
:1046C00001D01C20704710B481B9124BEFF3058262
:1046D0001C68224306D0EFF305821B681343B3F135
:1046E000F03F12D35DF8044BFFF710B9EFF30582EA
:1046F000084B1C68224304D1074C084A24689442A2
:10470000E4D104205DF8044B70471320FAE700BFA2
:104710004554554D38040020286800207869002051
:1047200018B10B4B02689A4201D01C207047EFF37E
:104730000583084A11680B4306D0EFF3058113681F
:104740000B43B3F1F03F01D3FFF710BA13207047CA
:104750004554554D380400202DE9F04F85B09A4658
:10476000119B0193129B0393139B0293DDE90F8925
:104770000E9D149B08B1B42B03D00E2005B0BDE8EC
:10478000F08F8B4617460646EFF3108272B6DFF8BD
:1047900028C1DCF800300133CCF8003082F31088F7
:1047A000404B1A68404B08F1FF301C682844DAB1CE
:1047B000A64219D000230097D4F80CE0AE454FF084
:1047C000000106D82769AF424FF001018CBF0025D8
:1047D0000021864503F101034CD82769874249D956
:1047E000009FD4F888400025EFF3108272B6DCF801
:1047F0000030013BCCF8003082F31088FFF7F2FB69
:10480000A642BAD0002D41D0002F3FD0B8F1C70F3B
:104810003AD9B9F11F0F41D8019B994540D3029B6A
:10482000012B37D8214B1868214B98420CBF13201D
:104830000020EFF305821F4B19680A4306D0EFF3FF
:1048400005821B681343B3F1F03F25D3002895D1AF
:10485000029B1393039B1293019B3A46CDE910935D
:10486000594653463046CDE90E5805B0BDE8F04FE5
:10487000FFF780BA9342D4F8884003D0A64201D013
:10488000002999D0009FAFE7052077E7032005B006
:10489000BDE8F08F102071E713206FE70F206DE760
:1048A00018206BE72068002024680020286800207A
:1048B0007869002038040020386800200FB400B563
:1048C000074983B004AB086853F8042B816801934F
:1048D00000F00AF803B05DF804EB04B0704700BFC5
:1048E00000000020000000002DE9F04F2DED0A8BA4
:1048F000CFB01C460AEE101A91460AEE900A054601
:1049000003F0A8F90368139318460994FCF7F8F824
:1049100012901DB1AB6B002B00F048821AEE102AEA
:10492000536EDB0740F14781B2F90C309AB296041E
:1049300009D41AEE101A43F400538B819AB24B6ECD
:1049400023F400534B66150740F1CC801AEE103A61
:104950001B69002B00F0C68002F01A030A2B00F03E
:10496000D2804D469FED9C7B2B78002425AACDE973
:104970002344CDE91544CDE917448DED107B1AEEA3
:10498000909A0E942292904614940694002B00F074
:10499000B081AB4604E01BF8013F002B00F0CD8056
:1049A000252BF8D1BBEB050640F0CB809BF80030FF
:1049B000002B00F09E8100234FF0FF329BF8017026
:1049C0008DF86B3005930BF1010B04929A462B2462
:1049D00020210BF1010BA7F120035A2B00F20081DB
:1049E000DFE813F00A03FE00FE000503FE00FE00F0
:1049F000FE006A00FE00FE0076029E02FE008102BA
:104A0000A802FE00A3025B005B005B005B005B0092
:104A10005B005B005B005B00FE00FE00FE00FE0032
:104A2000FE00FE00FE008E01FE001602ED018E016A
:104A30008E018E01FE00FE00FE00FE000003FE005F
:104A4000FE004502FE00FE00FE002002FE00C20243
:104A5000FE00FE009907FE00FE00FE00FE00FE00C4
:104A6000FE00FE00FE008E01FE001602EF018E0128
:104A70008E018E01E602EF01E801FE00F302FE0066
:104A800086024702D402E801FE0020027D0075077D
:104A9000FE00FE007907FE007D00A7F13003002232
:104AA0001BF8017B02EB820203EB4202A7F1300309
:104AB000092BF5D905928EE7484603F0CBF84368F9
:104AC00017931846FCF71CF818900646484603F062
:104AD000C1F8836815932021002E40F0E9869BF8E9
:104AE000007076E71AEE101A1AEE900A1AEE105AB3
:104AF00001F03AFD002841F02783AA8902F01A0349
:104B00000A2B7FF42EAF1AEE101AB1F90E30002BDB
:104B1000FFF627AF4B6ED90702D4920541F15A81B7
:104B20001AEE101A1AEE900A23464A464FB0BDEC10
:104B30000A8BBDE8F04F01F09FBCBBEB050600F00F
:104B4000D880249B33442493239B0133072BC8E94B
:104B50000056239305DC08F10808069B33440693AE
:104B600024E71AEE101A22AA484605F0BFFD90B9B4
:104B70000DF19408F1E71AEE101A22AA484605F042
:104B8000B5FD002800F0A680089B23B11AEE900A1C
:104B9000194602F035FF1AEE102A536ED80740F17D
:104BA000FA8093895A0601F1D88206984FB0BDEC7D
:104BB0000A8BBDE8F08FB2F90C309F059AB23FF531
:104BC000B6AE1AEE105AA86DFCF76CFCB5F90C30B5
:104BD0009AB2ACE6AFF300800000000000000000D5
:104BE000002F00F0868000238DF8D4708DF86B3094
:104BF0000122CDE90723039204930C930F930D93A5
:104C000035AD1AF002020A9202D0039A02320392E0
:104C10001AF084020B9205D1059A0399561A002EB8
:104C200000F36883249C8BB1239B0DF16B0201334D
:104C30000134C8F80020072B4FF00102249423937D
:104C4000C8F8042000F39F8308F108080A9B83B189
:104C5000239B1BAA01330234C8F80020072B4FF016
:104C6000020224942393C8F8042000F3998308F1E6
:104C700008080B9B802B00F06A82049B079A9E1AFF
:104C8000002E00F3AB821AF4807F40F00682079B6F
:104C9000C8F804301C44239BC8F800500133072B8C
:104CA0002494239300F3198308F108081AF0040FE1
:104CB00005D0059B039A9D1A002D00F38583DDE93D
:104CC000052303998A42ACBF9B185B180693002CFE
:104CD0007FF451AF00232393089B1BB108994846EA
:104CE00002F08EFE0DF194085D462B78002B7FF4C8
:104CF00050AE249B002B41F01B82002323934AE7F4
:104D0000099B073323F00703B3EC027B8DED107B87
:104D1000DDE91012099322F000430BEE101A0BEE9E
:104D2000903A4FF0FF32B0EE4B9AF0EE6B9AB74BE1
:104D300051EC190BFCF7D8FA002840F0E884B34B8B
:104D400051EC190B4FF0FF32FCF7B0FA002840F09D
:104D5000DE84DDE9100100220023FCF79DFA002823
:104D600040F067879DF86B30A94DAA4A2AF0800A67
:104D70000321472FC8BF15460022089203910791CF
:104D800004920C920F920D92002B3FF43AAF039ACB
:104D90000132039235E7938999053FF503AF1AEE87
:104DA000104A906DFCF780FBA389FBE6284602F0D1
:104DB00045FDB3E59BF800704AF0200A09E64AF089
:104DC000100A1AF0200F099B00F04084073323F0EB
:104DD00007031A465B6852F8084B09921E46002BDF
:104DE000C0F24384049B013300F0BC822AF08003AC
:104DF000039354EA060340F0B782049B002B40F073
:104E0000B882DDF80CA00023049307934EAD1FE198
:104E1000099A002352F8041B8DF86B308DF8D410DA
:104E20000992E5E6099C54F8045B00268DF86B6056
:104E3000002D00F08F85049B5A1C00F051861A4605
:104E400031462846FBF7CCFE0890002801F02F8160
:104E5000089B0496591B079121EAE1719DF86B307C
:104E60000994039108960C960F960D968CE74AF0DC
:104E7000100A1AF0200600F0C983099B073323F0BB
:104E800007035E6853F8084B09932AF48063039381
:104E9000002300228DF86B20049A551C00F0C0807E
:104EA000039921F0800A54EA060140F0B780002AF5
:104EB00040F00786002BA6D1039B13F00103079354
:104EC00000F0148430238DF837310DF23715BFE030
:104ED000099B53F8042B0592002A80F2D583059A8A
:104EE0000993524205929BF800704AF0040A70E55B
:104EF0001AF0200F40F0D1841AF0100F40F0E7852F
:104F00001AF0400F40F0A9861AF4007F00F0DF8508
:104F1000099B069953F8042B099311705D46E4E64A
:104F20009BF800708DF86B4053E59BF800704AF0D9
:104F3000800A4EE55A4612F8017B2A2F01F06F8253
:104F4000A7F13003092B934698BF002201F2EC80B1
:104F50001BF8017B02EB820203EB4202A7F1300354
:104F6000092BF5D9049236E54AF010030393039B0D
:104F700013F0200600F05983099B073323F0070341
:104F80005E6853F8084B0993012382E7099B53F8A5
:104F9000044B099330234AF0020278278DF86C30D5
:104FA0001D4B149303928DF86D700026022370E759
:104FB0009BF80070682F03BF9BF801704AF4007AD9
:104FC0000BF1010B4AF0400A03E59BF800706C2FCF
:104FD00003BF9BF801704AF0200A0BF1010B4AF065
:104FE000100AF6E49BF800704AF0080AF1E49BF816
:104FF00000704AF0010AECE49DF86B30002B7FF45E
:105000006EAD9BF800708DF86B10E2E4FFFFEF7F50
:10501000D0C70008D4C70008E0C70008CDF80CA02E
:10502000012B00F0A181022B4EAD20D1149A04F087
:105030000F032409D35C05F8013D44EA06743609E0
:1050400054EA0603F3D14EAB5B1BDDF80CA00793CB
:10505000049907989DF86B3081424FF00002B8BF69
:105060000146089203910C920F920D928CE604F087
:105070000703E40844EA4674F608303354EA0601AC
:105080002A4605F8013DF2D10399CC0700F175825B
:105090004EAB5B1B8A460793DAE7652F40F3D78058
:1050A000DDE9100100220023FCF7ECF8002800F0F5
:1050B000C681239BC14AC8F8002001330134012274
:1050C000072B24942393C8F8042000F3DE8408F10E
:1050D00008081C9B0E9A934280F2D182129B139A6D
:1050E0001C44C8E90023239B24940133072B2393FA
:1050F00000F3228408F108080E9B5D1E002D7FF747
:10510000D5AD102D239B41F36981AD4F0A972246FF
:1051100010261AEE104A05E008F10808103D102D7F
:1051200040F3C18401331032072BC8E90076CDE982
:105130002332F1DD22AA2146484605F0D7FA00289D
:105140007FF422ADDDE923320DF19408E6E7059BFB
:10515000039A9E1A002E7FF790AD102E239B41F3E9
:105160003F8097490B9522461AEE105A0A910C4639
:1051700004E0103E102E08F1080819DD013310324A
:105180001021072BCDE92332C8F80040C8F80410DD
:10519000EFDD22AA294648460DF1940805F0A6FA4B
:1051A00000287FF4F1AC103E102EDDE92332E5DC5F
:1051B0000B9D144601330A9AC8F800203444072B8B
:1051C000CDE92334C8F8046000F3A883049B079A50
:1051D0009E1A002E08F108087FF755AD102E239B6C
:1051E00040F30F8576480A90424621461AEE108A0F
:1051F000044604E0103E102E02F1080216DD0133D1
:1052000010311020072BCDE9233114605060F1DDFF
:1052100022AA4146484605F069FA00287FF4B4AC5A
:10522000103E102EDDE9233125AAE8DC90460C461D
:1052300001330A9AC8F800203444072BCDE92334FF
:10524000C8F8046000F3D48108F108081BE50E9B40
:10525000012B40F37381239EC8F8005001360134BE
:105260000123072E24942396C8F8043000F3968374
:1052700008F10808129B139A01361C44072EC8E94E
:105280000023CDE9236400F3978308F10808DDE9E2
:10529000100100220023FBF7F5FF002840F07B817E
:1052A0000E9B0136013B01351C44072EC8F8005007
:1052B0002396C8F80430249400F3518108F10808BB
:1052C000169BC8F8043001361C44072E1EABCDE9EE
:1052D0002364C8F800307FF7E7AC1AEE101A22AA50
:1052E000484605F003FA00287FF44EAC249C0DF1EB
:1052F0009408DBE4102EDDE9233222DD1995102419
:105300001AEE105A04E0103E102E08F1080817DDBE
:1053100001332C491032072BC8E90014CDE92332A0
:10532000F1DD22AA294648460DF1940805F0DEF980
:1053300000287FF429AC103E102EDDE92332E7DC93
:10534000199DC8F804600133B418072B1D4AC8F82A
:105350000020CDE9233400F37D839DF86B3008F104
:10536000080860E4CDF80CA00A2C76F1000380F068
:10537000318330340123DDF80CA08DF837410793D9
:105380000DF2371564E61AEE101A22AA484605F007
:10539000ADF900287FF4F8AB249C0DF1940855E496
:1053A0001AEE101A22AA484605F0A0F900287FF448
:1053B000EBAB249C0DF194085BE400BF10C800081F
:1053C00024C8000814C80008102D239B20DD1AEE05
:1053D000107A102604E0103D102D08F1080817DDA2
:1053E0000133AC4A1034072BC8E90026CDE9233439
:1053F000F1DD22AA394648460DF1940805F076F908
:1054000000287FF4C1AB103D102DDDE92334E7DC2B
:105410000133A04AC8F804502C44072BCDE92334AB
:10542000C8F800207FF74BAC1AEE101A22AA4846A3
:1054300005F05CF900287FF4A7AB249C3FE41C9A9C
:10544000002A40F32B81DDE90D739F42A8BF1F4660
:10545000002F0BDD239B01333C44072BC8E9005789
:105460002494239300F3D58508F108080D9E002F9E
:10547000A8BFF61B002E00F344830D9B1AF4806F27
:105480002B44079340F0E3841C9B0E9A934203DB6A
:105490001AF0010F00F0D283129A13991444C8E94C
:1054A0000012239A24940132072A239200F3BF8525
:1054B00008F108080E9A0799AE18761AD51AAE4266
:1054C000A8BF2E46002E0DDD239BC8F80010013327
:1054D0003444072BC8F804602494239300F309860E
:1054E00008F10808002EA8BFAD1B002D7FF7DEAB2A
:1054F000102D239B40F37287674F0A972246102690
:105500001AEE104A05E008F10808103D102D40F38E
:10551000CA8201331032072BC8E90076CDE9233265
:10552000F1DD22AA2146484605F0E0F800287FF484
:105530002BABDDE923320DF19408E6E71AF0010FF9
:105540007FF489AE239EC8F8005001360134012350
:10555000072E24942396C8F804307FF7AFAE1AEED6
:10556000101A22AA484605F0C1F800287FF40CABB7
:10557000DDE923640DF19408A2E6302B3FF463AD1E
:105580003023023A05F8013C4EAB9B1ADDF80CA023
:10559000079315465CE50E9B5D1E002D7FF790AED0
:1055A000102D40F321873C4ACDF810A023461AEE77
:1055B00010AA0A921027144605E008F10808103DC9
:1055C000102D40F3E38201361033072EC8E900475F
:1055D000CDE92363F1DD22AA5146484605F086F85D
:1055E00000287FF4D1AADDE923630DF19408E6E7F2
:1055F0001AEE101A22AA484605F078F800287FF41F
:10560000C3AA249C0DF19408FFF73DBB1AF01003C8
:1056100040F03D811AF0400200F0C882099A52F829
:10562000044B09921E46A4B22FE4039B13F010030F
:1056300066D1039A12F0400200F0C682099A52F82D
:10564000044B09921E46A4B2012322E453F8044BF2
:1056500009931AF0100F4FD11AF0400F48D044F3BD
:10566000C036334624B2FFF7BABB2D2364428DF80F
:105670006B3066EB4606CDF80CA001230CE41AF063
:10568000010F3FF413AB29E59BF800700993FFF776
:10569000A0B900BF14C8000824C80008239BB6495D
:1056A000C8F80010013301340121072B24942393FF
:1056B000C8F8041000F3848408F10808002A40F0B8
:1056C00046820E9A0AF0010313433FF4EFAA129B9D
:1056D000139A1C44C8E90023239B24940133072B0D
:1056E000239300F3688308F1080841E24EADAFE46C
:1056F0001AF4007F40F0AB82E6173346FFF76FBB2A
:10570000099B53F8044B09930123FFF7C2BBDDE962
:10571000100102460B46FBF7E7FD002840F02E86FD
:10572000612F00F07F85412F00F0A082049B0133A0
:1057300027F02003039300F0C085472B00F0AB85D2
:10574000DDE910014AF48072002907924FF000034E
:10575000C0F2458441EC180B0A930893039B462B37
:1057600000F07484452B00F02585B0EE480AF0EE79
:10577000680A20AB01931DAB0093049A1CAB022175
:10578000484600F0F1FF039B472B054640F05E863C
:105790001AF0010F5646DDF81CA040F0E384209B70
:1057A0005B1B0E93039B472B00F01B83039B462B35
:1057B00000F089841C9B0D930D9B039A013B412AA9
:1057C0001C9300F0E985FAB20021002BB8BF0D9BB5
:1057D0008DF87820BABFC3F101032D222B22092BAB
:1057E0008DF8792040F36D850DF18704DFF898C1BD
:1057F000224610468CFB0321DA17C2EBA10202EB12
:105800008201A3EB4101303100F8011C19466329E4
:10581000134600F1FF32ECDC3033D9B2831E9C42D8
:1058200002F8011C40F20E8613460DF17A0201E0E7
:1058300013F8011B02F8011B9C42F9D10DF18903F9
:105840000DF17A021B1A13441EAA9B1A16930E9B83
:10585000169A012B1A44079240F3B285079B129ABD
:1058600013440793079A002326F4806622EAE27223
:1058700046F4807A0C9303920F930D930A9B002BAE
:1058800040F0DE8204939DF86B30FFF77DBA099BF0
:1058900053F8044B0993FFF7F8BA099B069853F89D
:1058A000041B0993C217C1E900025D46FFF71DBA48
:1058B000159B002B3FF413A9159B1B78002B3FF47D
:1058C0000EA99BF800704AF4806AFFF782B8CDF801
:1058D0000CA0FFF74CBB294B14931AF0200655D0AF
:1058E000099B073323F007035E6853F8084B0993BD
:1058F0001AF0010F09D054EA060306D030238DF8C0
:105900006D704AF0020A8DF86C302AF480630393BC
:105910000223FFF7BEBA1A4B1493DEE71AEE101AF1
:1059200022AA484604F0E2FE00287FF42DA9249C18
:105930000DF19408FFF7A1B91AEE101A22AA4846F1
:1059400004F0D4FE00287FF41FA9249C0DF19408D4
:10595000FFF7D2BB049A0895062A294628BF0622DB
:1059600004952B460392074D099407920C910F91D1
:105970000D91FFF709BA00BF10C80008E0C7000882
:10598000F4C7000808C80008676666661AF01003C6
:1059900070D0099B53F8044B0993A9E71AEE101A2B
:1059A00022AA484604F0A2FE00287FF4EDA8DDE913
:1059B00023640DF194085DE41AEE101A22AA4846F9
:1059C00004F094FE00287FF4DFA8DDE923640DF1E4
:1059D00094085CE4039B002203F48063CDE907781C
:1059E00009EE109A0DF59C7ADDF85490174698460A
:1059F0000CE00023204631460A22FAF7E1FE0A2C89
:105A000076F100031CD304460E46AA4620460A221D
:105A100000233146FAF7D4FE30320AF1FF35013760
:105A20000AF8012CB8F1000FE3D099F800309F423A
:105A3000DFD1FF2FDDD00A2C76F1000380F0E58066
:105A4000CDF854900E97DDF82080079F19EE109A3C
:105A5000FFF7F9BA1AEE101A22AA484604F046FED9
:105A600000287FF491A89DF86B30249C0DF19408D8
:105A7000FFF7D9B81AF0400200F0B680099A52F840
:105A8000044B09921E46A4B232E71AEE101A22AA5B
:105A9000484604F02BFE00287FF476A8249C0DF1E4
:105AA0009408FFF716BB144601330A9AC8F8002081
:105AB0002C44072BC8F80450CDE923347FF7F4A811
:105AC0000BE4012BCDF80CA07FF4ADAA51E4099BA7
:105AD000069953F8042B5D4611600993FFF705B949
:105AE000284604960994FBF70BF820EAE0719DF82C
